:020000040001F9
:10400000183F00200542010017420100194201003B
:1040100000000000000000000000000000000000A0
:104020000000000000000000000000001B42010032
:1040300000000000000000001D4201001F420100BE
:1040400021420100214201007BCC010021420100FC
:1040500021420100000000005DB301002142010087
:1040600021420100214201002142010021420100C0
:1040700021420100214201002142010021420100B0
:1040800021420100D99E010021420100214201008C
:10409000EF9E0100A9B501000BB70100214201000C
:1040A0002142010021420100000000000000000048
:1040B0000000000000000000000000000000000000
:1040C00000F002F800F032F80CA030C808382418CC
:1040D0002D18A246671EAB4654465D46AC4201D140
:1040E00000F024F87E460F3E0FCCB6460126334240
:1040F00000D0FB1AA246AB46334318471007010015
:10410000300701000023002400250026103A01D3C7
:1041100078C1FBD8520700D330C100D50B6070477F
:104120001FB5C046C0461FBD10B510BD0CF07CFACF
:104130001146FFF7F5FF00F059FF0CF094FA03B4B5
:10414000FFF7F2FF03BC0CF0C7FA0000401E00BFEF
:1041500000BF00BF00BF00BF00BF00BF00BF00BF67
:1041600000BF00BF00BFF1D170470000401E00BF7C
:1041700000BF00BF00BF00BF00BF00BF00BF00BF47
:1041800000BF00BF00BFF1D170470000401E00BF5C
:1041900000BF00BF00BF00BF00BF00BF00BF00BF27
:1041A00000BF00BF00BFF1D170470000401E00BF3C
:1041B00000BF00BF00BF00BF00BF00BF00BF00BF07
:1041C00000BF00BF00BFF1D17047000070B50546C9
:1041D0000C46164602E00FCC0FC5103E102EFAD248
:1041E000082E02D303CC03C5083E042E07D301CC0E
:1041F00001C5361F03E021782970641C6D1C761EF2
:10420000F9D270BD0A48026803210A4302600948D6
:10421000804709480047FEE7FEE7FEE7FEE7FEE7C6
:10422000FEE7000005480649064A074B70470000B4
:104230002405004055420100C1400100182F002014
:10424000183F002018370020183700202349224843
:104250000860704710B500F01DF8002805D021490E
:104260001F484860C813204988612048018CC9B2A2
:1042700001290ED1818C09070BD1018D0906090F87
:10428000042906D1808D0006000F02D118490120B3
:10429000886010BD1548018CC9B2012917D1818CE5
:1042A000090714D1018D09060A0F03D1828D120668
:1042B000120F0ED0090F012903D1828D1206120FA1
:1042C00007D0032903D1808D0006000F01D0002004
:1042D00070470120704700000024F40000200020F7
:1042E000DFFF07C000050040006C0040C00F00F079
:1042F00000060040704710B5FE48017800290ED135
:1043000001210170FC4900200870FC490246087038
:10431000FB498870FC48FB49006805F0A7FE10BD0A
:1043200010B5F4480178002905D000210170F64845
:10433000006805F0D6FE10BD10B5F4490A20F04C17
:104340000870607900280DD108F09FFF642020726A
:1043500003F073FD0120EE4A607100211170E171DC
:104360006072A07110BD10B50120EA494007886055
:10437000AE2008F02AFFE2480021C171417103F02C
:104380002AFA10BD704710B5642005F095FBE2488D
:1043900004F01DFBE04804F024FB10BDF0B5D84943
:1043A000867800220124DD4DDD4F8B7B012E08D065
:1043B000042E05D10878184302D12A703A70CC70C7
:1043C000F0BD0078002803D00228F9D18A82F0BD20
:1043D00048781843FBD11E2088822A700C703A70EE
:1043E000F0BD10B504460146CB4804F014FA20682D
:1043F00002280CD1C2490222C87C1043C874C043B1
:10440000800704D10021C74A084607F0BDF910BD56
:10441000014600B50020092901D8084600BD103921
:104420000B000CF0D5FF4A27292B2D2F31333537C0
:10443000392626262626263B3D3F41434547494B04
:104440004D2626262626264F51535557595B5D5F2C
:1044500061262626262626636567696B6D6F717354
:104460007526262626262677797B7D7F818385877C
:104470008926D3E70A2000BD0B2000BD0C2000BD1B
:104480000D2000BD0E2000BD0F2000BD102000BD7E
:10449000112000BD122000BD132000BD142000BD5E
:1044A000152000BD162000BD172000BD182000BD3E
:1044B000192000BD1A2000BD1B2000BD1C2000BD1E
:1044C0001D2000BD1E2000BD1F2000BD202000BDFE
:1044D000212000BD222000BD232000BD242000BDDE
:1044E000252000BD262000BD272000BD282000BDBE
:1044F000292000BD2A2000BD2B2000BD2C2000BD9E
:104500002D2000BD2E2000BD2F2000BD302000BD7D
:10451000312000BD322000BD332000BD342000BD5D
:10452000352000BD362000BD372000BD382000BD3D
:10453000392000BD3A2000BD3B2000BD014600B53A
:104540000020092901D8084600BD0A390B000CF0EB
:104550003FFF321B1D1F21232527292B2D2F3133F0
:104560003537393B3D3F41434547494B4D4F51530B
:104570005557595B5D5F61636567696B6D6F7173FB
:104580007577797B7D1ADFE7102000BD112000BD13
:10459000122000BD132000BD142000BD152000BD59
:1045A000162000BD172000BD182000BD192000BD39
:1045B000202000BD212000BD222000BD232000BD01
:1045C000242000BD252000BD262000BD272000BDE1
:1045D000282000BD292000BD302000BD312000BDB5
:1045E000322000BD332000BD342000BD352000BD89
:1045F000362000BD372000BD382000BD392000BD69
:10460000402000BD412000BD422000BD432000BD30
:10461000442000BD452000BD462000BD472000BD10
:10462000482000BD492000BD502000BD512000BDE4
:10463000522000BD532000BD542000BD552000BDB8
:10464000562000BD572000BD582000BD592000BD98
:10465000010710B5090F092901D9002010BD002854
:10466000FCD07D23020BDB005A4303051B0F64249F
:104670006343D2180006000F0A235843101840184D
:1046800080B210BD70B504001BD07D21C9000BF0B5
:1046900012FC0503084664210BF00DFC00022D18E6
:1046A000642120460BF007FC08460A210BF003FCAE
:1046B00000012D180A2120460BF0FDFB681880B27E
:1046C00070BD002070BDFFB583B00F460CA970C946
:1046D000FFF79EFE694608703846FFF799FE694667
:1046E00048701046FFF794FE694688700698FFF7F9
:1046F0008FFE19E05D20002074200020752000202E
:104700000420002066060000A42000200C220020C7
:10471000A820002000050050E824002010250020DB
:10472000A0200020874301006946C8702046FFF79B
:104730006FFE694608710121E8B249034018FFF78E
:1047400087FF6946C8803046FFF762FE69464871B8
:10475000684607F022FB07F091FA012007B0F0BD90
:10476000FEB50746FE480E4601681C4615466846DB
:1047700007F08AFA68460078FFF7E0FE387068466E
:104780004078FFF7DBFE307068468078FFF7D6FE92
:1047900028706846C088FFF775FF0999C0B2088085
:1047A00068460079FFF7CAFE089908706846C07825
:1047B000FFF7C4FE207068464079FFF7BFFE0A99F4
:1047C00008700120FEBD30B53222012400280AD035
:1047D000002512280AD003071B0F092B01D8242813
:1047E00007D9104630BD0C70002030BD0D700C2074
:1047F00030BD0209122807D90A20521E4243D018A0
:10480000801EC0B20D7030BD0A204243D018C0B225
:104810000C7030BD01461339062902D90F3902291F
:1048200001D8123804E001462039012902D818388D
:10483000C0B27047014610390229FAD9411E082931
:10484000F7D9002801D000207047122070470028B7
:1048500005D0C44A1146491EFDD1401EFAD1704709
:10486000FFB589B008A847791E4614463846FFF7B9
:10487000EFFEC5B2002F05D0152F03D0302F01D089
:10488000452F03D10821B8480BF011FBB748017838
:104890006846408D0029C0B2069008A8007A0590AD
:1048A00008A8C079049008A88079039046D02846CB
:1048B0000E38102802D310380E2801D2C5B203E0FA
:1048C0002C2D01D32C3DEDB23100A74EA84831D19B
:1048D0002EE0317001E06A08B1540021016010211E
:1048E00020460BF0E4FA0698207005986070049852
:1048F000A070039807F0B4FA8500384607F0B0FAC4
:104900000F210BF0D8FA2818E070FF2020713078C2
:1049100060717078A071B078E071F07820723079B1
:1049200060727079A072B079E072F079207356E00D
:10493000E907D4D00168002DCDD1CAE702A907A8A4
:104940000CF098FF002000212154401C1028FADBB5
:1049500088480168884800680DF082F90890874807
:1049600000690188864800880D1A0698207005980D
:1049700060700498A070039807F072FA86003846B9
:1049800007F06EFA0F210BF096FA3018C6B2E670F7
:10499000002020717B4908980DF00AF90BF088FD82
:1049A0006071000AA071E571280A207202984543DF
:1049B0006572280AA072300AE0722673142F05D09F
:1049C000292F03D0442F01D0592F08D16B480069FB
:1049D00001686B4801606848016866480160012011
:1049E0000DB0F0BD0146090700B5090F00200B000E
:1049F0000CF0EEFC10090B0D0F11131517191B1DF0
:104A00001F212123250A302000BD312000BD322086
:104A100000BD332000BD342000BD352000BD362050
:104A200000BD372000BD382000BD392000BD412029
:104A300000BD422000BD432000BD442000BD4520F4
:104A400000BD30B5012001468BB0684610314E4C98
:104A50000177216A4175206A010A68468175206ADA
:104A6000010C6846C175206A010E68460176616ACC
:104A70004176606A010AC0200143684681760025BC
:104A8000057505A870DF142240496846FFF79EFBB4
:104A9000206A0002000FFFF7A5FF69460873206A2D
:104AA0000003000FFFF79EFF69464873206A000469
:104AB000000FFFF797FF69468873206A0005000F13
:104AC000FFF790FF6946C873206A0006000FFFF7E2
:104AD00089FF69460874206A0007000FFFF782FF0C
:104AE00069464874684607F06DFE694611200877EC
:104AF00068460BF05DF982B2694607A87CDF08952D
:104B00006421684609950184FF212D314184FF21EC
:104B100085849131C18408A87ADF0BB030BD1FB500
:104B200011482638C169002932D00121C1611348DA
:104B300014212C300BF0BDF9104800212C300170ED
:104B4000084A41600172D23202824182684606F010
:104B5000FBF8062000F03EFB08482C3073DF1FBD39
:104B6000E0210020360700002A20002064200020D9
:104B70004C2300208820002044230020D024002043
:104B8000842000200000C84240000010381D0200B0
:104B90000221CBE77047704770B5F84C01880126B9
:104BA000E38A17290CD00CDC0025102913D0112919
:104BB0001FD0132904D122462032002118467FDF5E
:104BC00070BD19291FD0392901D05529F8D11321D9
:104BD000184676DF70BDA6722671E5618088E08296
:104BE000E748E57400780028F4D1FFF7A5FBE571EC
:104BF00070BDA572A570FFF793FB0020C043E08253
:104C000005F0C5FF02E080790028F1D1207B002863
:104C1000EED1FFF784FFE67270BD10B5044605F0D3
:104C20005AFF204605F00AF82146D64803F0D5FF82
:104C30002046FFF7B1FF10BD10B504F02CFA10BDEF
:104C400070B58EB0064601206A4610701D20507067
:104C5000AC2090705024D4704625157101990098AD
:104C600007F0B7FC294620460CF09AFEC6A107C9FA
:104C700004AB07C304A807F058FEC6A103C90891F6
:104C80000790002E02D007A807F0B3FC0024684666
:104C90004471047107268671C47104722546684602
:104CA00005710299019807F0D0FC6D1C052DF6DB0B
:104CB000684644730672447286723021C172642160
:104CC00001730399029807F00BFDB44C60680D90D6
:104CD0000DA807F05FFD1C340FCC09AD0FC5B0A1C6
:104CE00009A80BF03FF809A807F064FDAE490020C1
:104CF00007F070FD0EB070BD10B50446AB480068FB
:104D000005F0EFF99D48202C04D0082C04D0012C8C
:104D100008D003E0A64900E0A649816100F051FAFD
:104D2000002010BD0121C903F7E71CB504469348D4
:104D3000007C002812D0002080210C43694600909E
:104D40000C7002460321019006F0DEFD01AB6A46BD
:104D5000022106F029FE694648791CBD06F0ABFE2B
:104D6000684604710023012201A9102006F00BFF00
:104D70000028F7D001231A466946112006F003FFE8
:104D80000028F7D06846047807F07EF820461CBD5E
:104D90007CB5054679480C46007C00280ED0684654
:104DA00005704170002002460321019006F0ACFD21
:104DB00001AB6A46022106F0F7FD7CBD06F07BFEE2
:104DC000684605704470012302226946102006F0EF
:104DD000DAFE0028F7D007F057F87CBDF0B5694D32
:104DE00091B075481C352860744868607448A860A4
:104DF000002628460CF064FD60490024487468468B
:104E0000047507F044F901F06CFD05A807F00DFCEE
:104E10006846007D002808D001263046FFF710FFC5
:104E20006846047505A807F008FC6649664807F05F
:104E3000DFFC52482E3007F086FD02F047FA30467C
:104E400015260227002817D003A807F0E8FC6846BB
:104E5000408A10388A2807D26846007C122803D876
:104E60006846C07B31284ED96846468201210174CC
:104E7000C173847346734FE00FA807F0B2FB10A80C
:104E8000017808A8C07F0CF08BFD03A807F0EDF8AF
:104E900006A9002007F0DFF92969069808604B4948
:104EA000079808604A49099A0A6029690A684949C5
:104EB0000A604949086008A8807D002810D108A828
:104EC000C07D00280CD168464687042108A80176D9
:104ED0002021C175082181753021417504754776FF
:104EE00008A8427E6846418F08A8007E6B4607C32B
:104EF00008A8C37D827D417D007DFFF7E4FB00288B
:104F0000EED011B0F0BD684646820421017407213D
:104F1000C17384733321417304734774418AFAB2B5
:104F2000007C6F4607C76846C37B827B417B007B62
:104F3000FFF7C9FB28690460244804602448046022
:104F4000286901682348016023480460D9E770B5E7
:104F500009F03DF901247D25ED00284604F0ACFD63
:104F6000641C052CF9DB70BDC1031C48491E41605F
:104F7000012181601A480160704700000420002070
:104F800064200020B4240020010203040506070861
:104F9000090A00008888888888880000301D02007F
:104FA0004A59442053740000102700009420002028
:104FB000FF030000FF0F0000914D01002B4D010089
:104FC000F94C01006C2000205F20002044230020C9
:104FD000802200208420002088200020000501403D
:104FE000000001409C499B480860C5E788B008F074
:104FF0004CF99A4801269949443006609848720451
:10500000C26000250E608660944924310D60934A89
:10501000102110321660C16002F01EFF914901207C
:1050200006F0F6F903F090F88C490C204031086046
:105030008C49002350221431082006F039FB8A489D
:1050400006F053FB894806F058FB864A0A21643271
:10505000082006F085FB002404F084F884480190C1
:10506000844802906846847005F0A7FEC82008F0C6
:1050700087F8FFF7E6FC8048009069467F4803F018
:10508000E4FD1C2168460AF014FF0520400401904D
:10509000801002900095032168460173C581067453
:1050A000774806900595684604F03FFD00F0BFF88C
:1050B000744A0521012006F081FAFFF78FFE462091
:1050C000FFF752FF00F07DF802F0B7FE6E490520B1
:1050D0000870FFF724FD6D4C0020E67202F07DF9A8
:1050E0006B480022F103006804F0C0FF06F089F865
:1050F000802069460195087100220321104602951F
:1051000006F002FC02AB01AA022106F04DFC694642
:10511000487A03280ED025740120E0731420E07132
:1051200002F0D4F85B4F207B00281AD0607B002867
:1051300002D017E02674EFE7012060730BF0FEFA4F
:105140000BF0FCFA0BF0FAFA74DFE572002801D0DC
:1051500074DFE5720BF0F2FA0BF0F0FA0CF0EEF8F7
:1051600000E065733878002827D0FF206946087171
:1051700001A807F062FA08F088F8002008F050F85B
:105180000BF0DCFA0BF0DAFA43A20221002008F05F
:10519000FAF800267D20C00004F08EFC761CF6B2E2
:1051A000022EF7D3684612DF68460078002804D044
:1051B000F0203ADFA02039DF2ADF06F05BFB3DDF7D
:1051C000B1E710B53148002281693548006804F024
:1051D0004DFF10BD11B53349A1B0487B0A7B0102D8
:1051E000114310A801802948817C10A881702E48A5
:1051F0003C2100680F9068460AF05BFE0224012102
:10520000684600944171018121A80390684681821B
:105210000FAA069281833C2111A808920AF049FE48
:1052200000216846119404F02AFB22B010BD1749F2
:105230001E2020310880887801221043E12210408E
:10524000DF220C30104088700720C87010200871D1
:1052500092E600003546526E0006014000070050FD
:1052600000050050A02300201B4C0100394C010018
:10527000E3430100974B0100456C0100B42400207A
:10528000954B0100D5A501000C2200200420002030
:105290009820002062200020557064617465200011
:1052A000942000205A1D0200301D020010B5FF4955
:1052B000002209780F23002901D05A220021445CE2
:1052C000491CA218D2B29942F9DBC05C904201D1CC
:1052D000012010BD002010BD0021C173C27B435CC2
:1052E000491CD218C2730F29F8DBD0B2704770B5D1
:1052F0000D460446FFF7F0FFE0732A462146EC48CE
:1053000003F0C9FC70BD30B50546EA4885B0807B26
:105310000C46002825D0012802D0022821D105E022
:105320008AB22946E24803F0B6FC1AE01421684626
:105330000AF0BFFD5A206946087029466D46621E74
:10534000681C0AF057FD002004E0295D2A5C8918DA
:105350002955401CA042F8D3641CE1B2684607F00E
:10536000E1FE002005B030BD70B50D460446FFF7E4
:10537000B3FFE07329462046FFF7C5FF082805D094
:10538000002803D0CCA24621FEF7B4FF70BDF0B5D3
:10539000C84987B04978002902D1CB4A0121117050
:1053A000FFF784FF00256C460028009501950295C3
:1053B00003955CD009202070C548C44900680CF0F2
:1053C000F7FB0BF075F8C34E3269116849024B0EBA
:1053D00069464B7011880B0A69468B701278CA7047
:1053E000020CCA71020A0A72487204A905A80CF0DC
:1053F00041FA3769049E38687D217043C9000AF07C
:105400005AFD000C6946887238687D217043C900D6
:105410000AF051FD000A6946C87238687D21704360
:10542000C9000AF048FD69460873AB483C21006892
:105430000AF041FD020A69464A738873CD73002061
:10544000C97B225C401C8A186946CA730F28F7DBA7
:1054500010216846FFF757FF082805D0002803D021
:1054600095A26E21FEF746FF012007B0F0BD89200E
:10547000207021460020C97B225C401C8A182146EE
:10548000E2730F28F7DB10212046FFF73CFF0828C6
:1054900005D0002803D088A27F21FEF72BFF002033
:1054A000E3E7F0B5834F064678788DB000282BD11E
:1054B0003046FFF7FBFE00256C46002805D07078CB
:1054C00004A906F0C8FE002821D0C3216846017057
:1054D000457002202554401C1028FBDB00206A4642
:1054E000D17B225C401C89186A46D1730F28F6DBF9
:1054F00010211046FFF707FF082805D0002803D029
:105500006DA2ED21FEF7F6FE00200DB0F0BD04986F
:10551000002813D071497078087068467049408E31
:10552000087008A86F49007C087008A86E49C07B05
:1055300008700120B87002F0FFFB1EE02554401CEB
:105540001028FBDB432168460170FF2141700020D9
:105550006A46D17B225C401C89186A46D1730F28A9
:10556000F6DB10211046FFF7CEFE082805D00028F4
:1055700003D051A2CA21FEF7BDFE0120C5E7F0B558
:105580008DB00646FFF792FE00246D46002805D038
:10559000707804A906F05FFE002821D087216846B4
:1055A0000170447002202C54401C1028FBDB0020AA
:1055B0006A46D17B2A5C401C89186A46D1730F2841
:1055C000F6DB10211046FFF79EFE082806D00028C3
:1055D00004D0FF2138A25931FEF78CFE002094E759
:1055E0006946401CCC731028FADB07270F70084669
:1055F0004C7071788170418EC17008A8017C68463A
:10560000017108A8C17B684641710498010C684685
:1056100081710498010A6846C1710499017244724B
:105620008472C472294905980CF0C2FA0AF040FF4E
:105630000146020C684602730A0A42738173002015
:105640006A46D17B2A5C401C89186A46D1730F28B0
:10565000F6DB10211046FFF756FE082806D000287A
:1056600004D0FF2114A21C31FEF744FE68460770E7
:105670000121417071788170418EC17008A8017C50
:105680006846017108A8C17B684641710F490698B8
:105690000CF08EFA0AF00CFF002852D07D21C900D0
:1056A0000AF009FC020C69468A711FE0762000208E
:1056B000B42400205C2000202E2E5C6576656E747C
:1056C000426C652E63000000062000200000C842E6
:1056D00044230020D02400208022002046200020E7
:1056E000522000205320002054200020020ACA71BA
:1056F0000872FE4800680AF01FFFFD490AF028FE04
:105700000AF0D6FE020A69464A728872CC720020FC
:1057100003946A46D17B2A5C401C89186A46D1737F
:105720000F28F6DB10211046FFF7EDFD082806D004
:10573000002804D0FF21EF4A4431FEF7DBFD0120B1
:10574000E3E668468471C4710472D2E7F0B589B0AB
:105750000646FFF7ABFDA32100256C46002868D064
:1057600001203056002845DB7278042A42D8227482
:10577000B1786174F178A1743179E1740022052166
:1057800025750120735C012B02D0002B06D00AE0A6
:10579000237D074697403B43237504E0277D03465E
:1057A00093409F432775491C521C0C29EADB05993D
:1057B000049806F04AFF23216846017045700220D4
:1057C0002554401C1028FBDB00206A46D17B225C5C
:1057D000401C89186A46D1730F28F6DB1021104649
:1057E000FFF791FD082821D000281FD0FF21C14AD2
:1057F000993119E02170657002202554401C102851
:10580000FBDB0020E17B225C401C8A18E2730F283E
:10581000F8DB10212046FFF776FD082806D0002887
:1058200004D0FF21B34AAD31FEF764FD012009B079
:10583000F0BD2554401C1028FBDB21700020E17BCB
:10584000225C401C89182246E1730F28F7DB1021E7
:105850001046FFF758FD082806D0002804D0FF2185
:10586000A44AC331FEF746FD0020E0E770B586B0DC
:105870000546FFF71BFD00266C46002832D06978EC
:105880002174A9786174E978A1742979E17469793E
:105890006175A97921750599049806F021FF00200A
:1058A0002654401C1028FBDB252168460170C67376
:1058B00000206A46D17B225C401C89186A46D1735D
:1058C0000F28F6DB10211046FFF71DFD082806D033
:1058D000002804D0FF21874AE831FEF70BFD0120A4
:1058E00006B070BD2654401C1028FBDBA52121709A
:1058F000E6730020E17B225C401C89182246E1739C
:105900000F28F7DB10211046FFF7FDFC082806D012
:10591000002804D0FF21774AFC31FEF7EBFC002081
:10592000DEE71FB5FFF7C2FC00246946002843D01C
:105930000120714B4204DA60704A10707048447163
:105940000470047200200C54401C1028FBDB12224F
:105950000A70CC730020CA7B0B5C401CD2180B462B
:10596000CA730F28F7DB10211846FFF7CCFC082874
:1059700005D0002803D05F4A6249FEF7BBFC6248AD
:105980003B21008876DF082806D0002804D0492172
:10599000584AC900FEF7AEFC74DF5C480470002072
:1059A000FFF74EF9002007F03BFCFEF7DCFC06F0A9
:1059B0003AFB012004B010BD0C54401C1028FBDB46
:1059C00092220A70CC730020CA7B0B5C401CD21858
:1059D0000B46CA730F28F7DB10211846FFF793FC1C
:1059E000082806D0002804D04649424A2031FEF754
:1059F00081FC0020DEE71FB5FFF758FC00216A4656
:105A0000002826D000201154401C1028FBDB38232E
:105A100013703B48D1734079002817D05170002093
:105A2000D17B135C401CC918D1730F28F8DB1021FF
:105A30001046FFF768FC082806D0002804D031493A
:105A40002C4A4331FEF756FC0120B3E70120507089
:105A5000E5E71154401C1028FBDBB8231370D17309
:105A60000020D17B135C401CC918D1730F28F8DBD0
:105A700010211046FFF747FC082806D0002804D064
:105A800020491C4A5731FEF735FC002092E7F0B55B
:105A900085B0FFF70BFC0025002858D018480126D8
:105AA000017A0624714001728472194A19481A4F0A
:105AB000002945D00521117006703C7001200BF0C3
:105AC0004DFC0F484672FEF737FC3C70009501957F
:105AD00002954921684603950170C5730020694607
:105AE000CA7B0B5CD2180B46CA7317E080220020D9
:105AF00000007042B8560100000500501020002040
:105B00005C200020430200001A2000200F2000200B
:105B10000B2000200D2000200C220020401C0F280C
:105B2000DEDB10211846FFF7EEFB082805D0002821
:105B300003D0FE4AFE49FEF7DDFB012005B0F0BDB3
:105B4000147006703C7000200BF008FCBBE7009559
:105B500001950295C921684603950170C57300201F
:105B60006946CA7B0B5C401CD2180B46CA730F28CF
:105B7000F7DB10211846FFF7C6FB082806D00028DF
:105B800004D05B21E94AC900FEF7B4FB0020D5E749
:105B90001FB50446FFF78AFB0022694600282AD079
:105BA0006378E448002B02D0012B03D003E00123EB
:105BB000437100E0427100200A54401C1028FBDBB6
:105BC00037230B70CA730020CA7B0B5C401CD218B1
:105BD0000B46CA730F28F7DB10211846FFF793FB1B
:105BE000082806D0002804D0C921D04A8900FEF731
:105BF00081FB0120DEE60A54401C1028FBDBB723A2
:105C00000B70CA730020CA7B0B5C401CD2180B4679
:105C1000CA730F28F7DB10211846FFF774FB08281A
:105C200006D0002804D06721C04AC900FEF762FBF5
:105C30000020BFE6F0B585B000240646009401942C
:105C400002940394FFF732FB6D4600282DD0B94F24
:105C50007078F870B278717912068918F278337911
:105C600012041B02D2188918396106F0B3FD3C7189
:105C70000B2168460170C47300206A46D17B2A5C00
:105C8000401C89186A46D1730F28F6DB1021104694
:105C9000FFF739FB082806D0002804D06B21A34A5F
:105CA000C900FEF727FB012048E72C54401C1028B0
:105CB000FBDB8B212970EC730020E97B2A5C401C04
:105CC00089182A46E9730F28F7DB10211046FFF7E1
:105CD0001AFB082806D0002804D0DB21934A89004B
:105CE000FEF708FB002029E71FB50446FFF7DEFAA0
:105CF00000226946002805D063788E48002B21D009
:105D0000012B21D000200A54401C1028FBDB8F23DC
:105D10000B70CA730020CA7B0B5C401CD2180B4668
:105D2000CA730F28F7DB10211846FFF7ECFA082892
:105D300006D0002804D07E497C4AE231FEF7DAFA28
:105D4000002037E6027001E00123037000200A54AE
:105D5000401C1028FBDB0F230B70CA730020CA7B8A
:105D60000B5C401CD2180B46CA730F28F7DB1021BE
:105D70001846FFF7C8FA082806D0002804D06C4956
:105D80006A4ACC31FEF7B6FA012013E61FB5FFF7D9
:105D90008DFA00216A46002827D000201154401CAB
:105DA0001028FBDB4F201070624813460078002853
:105DB00019D001205870D1730020D97B135C401C8E
:105DC000C9181346D1730F28F7DB10211046FFF7CF
:105DD0009AFA082805D0002803D0544A5649FEF7FD
:105DE00089FA0120E6E55170E5E71154401C1028BE
:105DF000FBDBCF231370D1730020D17B135C401CDD
:105E0000C918D1730F28F8DB10211046FFF77BFA71
:105E1000082806D0002804D04749444A1431FEF728
:105E200069FA0020C6E57FB500240094019402942D
:105E30000394FFF73BFA6D4600282ED03D49103100
:105E400008460D3806F0D4FC4B20694608703948E6
:105E5000C2784A700069020E8A70020CCA70020A87
:105E60000A714871CC7300206A46D17B2A5C401CC1
:105E700089186A46D1730F28F6DB10211046FFF708
:105E800042FA082806D0002804D02B49274A52316C
:105E9000FEF730FA012004B070BD2C54401C0F28CE
:105EA000FBDBCB212970EC730020E97B2A5C401CD2
:105EB00089182A46E9730F28F7DB10211046FFF7EF
:105EC00022FA082806D0002804D01B49174A663158
:105ED000FEF710FA0020DEE730B587B0FFF7E6F9ED
:105EE00000256C46002839D000202554401C10287D
:105EF000FBDB04A806F0B9F86846017C4170417CE0
:105F00008170817CC170C17C0171417D4171017DD5
:105F1000817126210170C57300206A46D17B225C05
:105F2000401C89186A46D1730F2807E0B856010053
:105F3000C70200005C200020CB030000EDDB102135
:105F40001046FFF7E0F9082805D0002803D0FE4AE4
:105F5000FE49FEF7CFF9012007B030BD2554401CA3
:105F60001028FBDBA6212170E5730020E17B225C79
:105F7000401C89182246E1730F28F7DB10211046D8
:105F8000FFF7C1F9082806D0002804D0EF49EE4AEF
:105F90001431FEF7AFF90020DEE730B589B00546D1
:105FA000FFF784F9A42200216C46002865D0002068
:105FB0002154401C1028FBDB0120285600283CDB24
:105FC0006878052839D20020E17B225C401C8918C2
:105FD0002246E1730F28F7DB24211170687804A9A9
:105FE00006F040FB6846017C4170417C8170817CF9
:105FF000C170C17C0171017D05200122431F0D4646
:10600000DD40EB0700D02254401C0C28F6DB0020BA
:106010006A46D17B225C401C89186A46D1730F28DE
:10602000F6DB10211046FFF76EF9082822D0002871
:1060300020D0C649C44A53311AE000202154401CE4
:106040001028FBDB227061700020E17B225C401C89
:1060500089182246E1730F28F7DB10211046FFF75D
:1060600052F9082806D0002804D0B849B64A683149
:10607000FEF740F9012009B030BD2154401C102822
:10608000FBDB22700020E17B225C401C8918224649
:10609000E1730F28F7DB10211046FFF734F90828C9
:1060A00006D0002804D0A949A74A7D31FEF722F97D
:1060B0000020E0E770B58EB00646FFF7F7F8002540
:1060C0006C46002836D0707804A906F0C4F8002188
:1060D0006554491C1029FBDB717868464170418E7C
:1060E000817008A8017C6846C17008A8C17B684619
:1060F000017108A801786846017308210170C57311
:1061000000206A46D17B225C401C89186A46D17304
:106110000F28F6DB10211046FFF7F5F8082806D007
:10612000002804D08949884AA131FEF7E3F801200C
:106130000EB070BD2554401C1028FBDB8821217057
:10614000E5730020E17B225C401C89182246E17344
:106150000F28F7DB10211046FFF7D5F8082806D0E6
:10616000002804D07949784AB631FEF7C3F80020F8
:10617000DEE7F0B587B00546FFF798F882270026DE
:106180006C4600284CD0697928790BF009FC00286E
:1061900016D06846077001202654401C0F28FBDBF0
:1061A0006846C7731021FFF7AEF8082806D000280C
:1061B00004D06649644AF031FEF79CF807B0F0BDA0
:1061C000697868460174A9784174E97881742A79FC
:1061D000C2746979017510460BF0E2FB05990498C9
:1061E00006F0F7F900202654401C1028FBDB0220A3
:1061F0006946087000206A46D17B225C401C8918E1
:106200006A46D1730F28F6DB10211046FFF77BF8A2
:106210000828D3D00028D1D0A7214B4AC900CBE70A
:10622000277001202654401C0F28FBDB2046E77313
:106230001021FFF768F80828C0D00028BED0424AD5
:106240004349B9E730B587B0FFF730F800256C4611
:10625000002830D004A806F0C4F900216554491C78
:106260001029FBDB422168460170017C4170417CB2
:106270008170817CC170C17C0171017D4171A01D63
:1062800006F0BEF900216A46D07B625C491C80188A
:106290006A46D0730F29F6DB10211046FFF733F85A
:1062A000082806D0002804D02949274A2631FEF7BD
:1062B00021F8012050E6C2202070214601202554FB
:1062C000401C0F28FBDB8220C87310212046FFF7FB
:1062D0001AF8082806D0002804D01D491A4A373178
:1062E000FEF708F8002037E6F0B58DB00546FEF75A
:1062F000DDFF00286CD007AC601D471C08AE09907C
:1063000009980290E31CA21C611C0197009607A843
:10631000FEF726FA0028F3D06C786846C480AE7881
:106320000671EF78C770297981700A916979417097
:106330000991A97901700B91ED794571002C25D057
:10634000002E23D0C07F05E0B8560100560400009F
:1063500057050000B84207D16846408CA04203D1DF
:1063600008A80078B04206D0FE490120C8710899FB
:10637000079806F04CFA009601943B4602950A9A5B
:1063800009990B98FEF79FF90028F4D000200546E4
:1063900003A90D54401C1028FBDB0124684604733C
:1063A000C476102103A8FEF7AEFF082805D0002808
:1063B00003D0ED4AED49FDF79DFFED480470FDF770
:1063C000BBFFEC48EC490570062008700DB0F0BD2D
:1063D0008122684602730120002103AB1954401C3E
:1063E0000F28FBDB6846C27610211846FEF78BFFAC
:1063F0000828EBD00028E9D0DC49DB4A1531FDF74D
:1064000079FFE3E730B589B0FEF750FF002503AC14
:1064100000283DD008A8013008AA411C0092831E24
:106420000290C21E019107A8411CFEF799F9412074
:106430006946087301202554401C1028FBDB0846E0
:10644000498C417308A8017868468173C17FC17384
:10645000817F0174417F4174017F817408A8417874
:106460006846C17400206A46D17E225C401C8918AF
:106470006A46D1760F28F6DB102103A8FEF743FF0A
:10648000082824D0002822D0B849B74A3A311CE065
:10649000C1206946087301202554401C1028FBDBED
:1064A00000206A46D17E225C401C89186A46D1765B
:1064B0000F28F6DB10212046FEF725FF082806D01E
:1064C000002804D0C121A84AC900FDF713FFD2E576
:1064D000F0B587B0FEF7EAFE00246D46002869D0CB
:1064E00000202C54401C1028FBDBA548A349006861
:1064F0000BF05EFB09F0DCFF48226946A14E0A70F2
:10650000326911680B0C69464B7011880B0A694699
:106510008B701278CA70020CCA71020A0A72487231
:1065200004A905A80BF0A6F93769049E38687043E2
:106530003BD0954909F0BFFC000C69468872386869
:106540009149704309F0B7FC000A6946C87238687F
:106550008D49704309F0AFFC694608738B490020F0
:106560000A68002A03D03C21104609F0A4FC020A64
:1065700069464A738873CC7300206A46D17B2A5CD3
:10658000401C89186A46D1730F28F6DB102110468B
:10659000FEF7B9FE082806D0002804D07349724AD5
:1065A0008031FDF7A7FE012008E668468472C472B8
:1065B0000473D3E72C54401C1028FBDBC82129703E
:1065C000EC730020E97B2A5C401C89182A46E97399
:1065D0000F28F7DB10211046FEF795FE082806D09D
:1065E000002804D06521604A0901FDF783FE0020E0
:1065F000E4E51FB5FEF75AFE00216C460028009125
:1066000001910291039123D01320207000F05EFECF
:106610005F48006800F016FE6946487000206A4630
:10662000D17B225C401C89186A46D1730F28F6DBA7
:1066300010211046FEF767FE082806D0002804D077
:106640004A49494AEF31FDF755FE012004B010BD1B
:1066500093222270E1730020E17B225C401C8918A8
:106660002246E1730F28F7DB10211046FEF74BFEA0
:10667000082805D0002803D03B4A4649FDF73AFEDA
:106680000020E3E71FB5FEF711FE0022694600284F
:1066900000920192029203922DD0222008703E486F
:1066A000426AC023120A1A434A70426A0B468A7031
:1066B000026A120ECA70026A120C0A71026A120A87
:1066C0004A71006A88710020DA7B0B5C401CD2188A
:1066D0000B46CA730F28F7DB10211846FEF713FE8E
:1066E000082806D0002804D02A491F4A1E31FDF789
:1066F00001FE0120AAE7A2230B70CA730020CA7B07
:106700000B5C401CD2180B46CA730F28F7DB102114
:106710001846FEF7F8FD082806D0002804D01D49C9
:10672000114A2F31FDF7E6FD00208FE71FB5FEF778
:10673000BDFD00216C46002800910191029103915A
:106740003DD0272020700E221449601C09F052FB16
:1067500000216A46D07B625C491C80186A46D0736F
:106760000F291DE05C200020B8560100BC05000088
:106770000D2000200B2000200C2200200000C84229
:1067800044230020D0240020102700008022002075
:1067900058200020BC0600004000001032200020DD
:1067A000D7DB10211046FEF7AEFD082805D00028E3
:1067B00003D0FE4AFE49FDF79DFD012046E7A722D2
:1067C0002270E1730020E17B225C401C8918224684
:1067D000E1730F28F7DB10211046FEF794FD08281F
:1067E00006D0002804D0F249F04A1131FDF782FDAD
:1067F00000202BE7F0B585B00446FEF757FD0025D5
:106800006E4600284ED0607801211022E94F002802
:106810000AD001280CD0022821D003281FD0042838
:1068200013D0052819D01AE0E34802E0A27004E072
:10683000E2480170A0781028F8D8A278E11CDD4861
:1068400009F0D8FAA0783D5409E0DD48DD4905702B
:1068500006200870FDF787FD01E0DB4805804D202C
:106860006946087001203554401C1028FBDBCD73AD
:1068700000206A46D17B325C401C89186A46D1737D
:106880000F28F6DB10211046FEF73DFD082806D044
:10689000002804D0C649C54A7F31FDF72BFD0120F1
:1068A00005B0F0BDCD21009501950295039531709D
:1068B000F5730020F17B325C401C89183246F1737D
:1068C0000F28F7DB10211046FEF71DFD082806D023
:1068D000002804D0B649B54A9031FDF70BFD0020E1
:1068E000DEE70020B34902462031C300C318401C34
:1068F000C0B2CA540528F8D3704770B50178012595
:10690000002488B0272970D017DC0B000AF060FD46
:1069100027386E7738B7BA3883867D80993838380B
:10692000A43838AEBD38F5F4F3383838383838384C
:1069300038FB38C08D9093963800462971D02CDCF6
:106940003D296FD01EDC34296DD013DC2E296BD08D
:10695000332915D105460094019402940394FEF75F
:10696000A5FC002870D0332069460870681C05F02B
:10697000CCFF3DE1372975D0382901D1FFF73BF82D
:1069800008B070BD3F2970D0412932D0422939D09A
:106990004329F5D1FEF785FDF2E74F295FD009DCE9
:1069A00047390B000AF014FD075528680552057F8A
:1069B0000500E5E76A296ED097297AD0A92958D031
:1069C000FF29DDD106460094019402940394FEF75A
:1069D0006DFC0028D4D0FF206946087071787B4890
:1069E000012972D0002971D00DE156E0FFF77CFC3F
:1069F000C6E7FFF707FDC3E7FFF76AFDC0E7FFF74C
:106A0000B8FBBDE7FFF71EFCBAE7FEF7C0FCB7E72F
:106A100000F03EF9B4E7FEF7B2FDB1E7FFF74AFB3D
:106A2000AEE743E06CE056E03AE0FEF78FFEA7E702
:106A3000FFF7B3FAA4E7FEF719FFA1E7FFF74CFA57
:106A40009EE7FFF7F7F89BE743E00BE0FFF7EBF972
:106A500096E700F0DEF993E7FFF746F990E7FFF7D6
:106A600095F98DE7FFF794F88AE772E0FEF759FF92
:106A700086E700F04CF983E7FFF709F880E700F0BC
:106A800078F97DE700F038FA7AE7FFF7B2FD77E7AB
:106A9000FFF7F8FD74E759E00BE0FFF747FE6FE7FB
:106AA00000F073FA6CE7FFF7A5FE69E700F0D6FA8D
:106AB00066E70094019402940394FEF7F7FB002824
:106AC00005D005F0B0FA97203DE099E09AE0A720C4
:106AD00039E0D32037E00094019402940394FEF748
:106AE000E5FB00280AD0342069460870481C05F0F0
:106AF00014FF7DE007E080E043E02DE0D42022E0B9
:106B000000F0F2FA3CE705460094019402940394E5
:106B1000FEF7CCFB002815D020206946087006221D
:106B2000691C2B4809F066F9FDF706FC25490A2087
:106B300008702848284904700D200870012007F0CB
:106B4000BAFE1DE7A0206946087051E000F0FFFA88
:106B500016E700F09AF913E7009401940294039465
:106B6000FEF7A4FB00280AD004A805F0E5FE00A863
:106B70000A2204A9013009F03DF91520E3E7C520F8
:106B800033E006460094019402940394FEF78EFBD2
:106B9000002829D00A22711C04A809F02BF904A8A6
:106BA00005F0C3FE16206946087017E0B8560100CC
:106BB00006070000102500200420002007200020E8
:106BC0000A2000200C220020182000205C20002039
:106BD0004C200020452000200B200020FE4801789A
:106BE000002905D1057003E0C62069460870C87306
:106BF00010216846FEF787FBC2E600F0E4FABFE624
:106C0000457300E04473B178C172F1E730B585B0E7
:106C1000047869460C740146082202A809F0EAF8D3
:106C2000E0002418ED4D09226119684609F0E2F8E8
:106C300000202855EA49012088736846FFF75DFE69
:106C400005B030BD7CB50D4601F0F8FBE44C0922DF
:106C5000207BC1004018E1494018294609F0CAF8D4
:106C6000207B69460870294600A8072209310130B7
:106C700009F0C0F8DB4A0821684604F085FD207B56
:106C8000401CC0B22073042801D9002020737CBDB1
:106C90001FB5D54900240C70FEF708FB6946002893
:106CA000009401940294039418D00A2008700020E4
:106CB000CA7B0B5C401CD2180B46CA730F28F7DB4B
:106CC00010211846FEF71FFB082805D0002803D026
:106CD000C6A29621FDF70EFB0120B7E48A200870BA
:106CE0000020CA7B0B5C401CD2180B46CA730F28CD
:106CF000F7DB10211846FEF706FB082805D0002810
:106D000003D0BAA2A721FDF7F5FA00209EE41FB533
:106D10000446FEF7CBFA002829D06178012000292B
:106D200002D0012902D003E0B44900E0B449087060
:106D30000020024669460A54401C1028FBDBA923A8
:106D40000B70CA730020CA7B0B5C401CD2180B4628
:106D5000CA730F28F7DB10211846FEF7D4FA08286B
:106D600005D0002803D0A1A2A649FDF7C3FA01204F
:106D70006CE47FB50646FEF799FA00246D460028BC
:106D800004D0307805F0F0FA002821D00094019466
:106D900002940821684603940170C47300206A4677
:106DA000D17B2A5C401C89186A46D1730F28F6DB18
:106DB00010211046FEF7A7FA082806D0002804D0B4
:106DC00090498AA2E331FDF795FA002004B070BD26
:106DD0000094019402940421684603940170C473E2
:106DE00000206A46D17B2A5C401C89186A46D17310
:106DF0000F28F6DB10211046FEF785FA082806D08A
:106E0000002804D02F2179A20901FDF773FA01208F
:106E1000DCE710B58AB0FEF749FA002833D000202D
:106E2000014603AC2154401C1028FBDB4720694677
:106E3000087308A8013008AA411C0092831E029022
:106E4000C21E019107A8411CFDF78AFC089907980A
:106E500005F0DDFC00206A46D17E225C401C8918CA
:106E60006A46D1760F28F6DB102103A8FEF74BFA0D
:106E7000082805D0002803D05CA26349FDF73AFA40
:106E80005749012088710AB010BD7FB55F4804687A
:106E900000F01CFA5E4901200870FDF74DFA00254C
:106EA0000095019502953F21684603950170642184
:106EB000204609F00AF802466846427008460A2150
:106EC00009F003F80146684681700A21204608F05F
:106ED000FCFF6846C170C57300206946CA7B0B5C25
:106EE000401CD2180B46CA730F28F7DB1021184636
:106EF000FEF709FA012069E77FB50646FEF7D6F9E5
:106F000000256C46002821D0701C05F072FB00950E
:106F100001950295052069460395087000206A4690
:106F2000D17B225C401C89186A46D1730F28F6DB9E
:106F300010211046FEF7E7F9082805D0002803D0F5
:106F40002AA23449FDF7D6F901203FE785210095B3
:106F50000195029503952170E5730020E17B225C89
:106F6000401C89182246E1730F28F7DB10211046D8
:106F7000FEF7C9F9082806D0002804D069211BA211
:106F80000901FDF7B7F9002020E71FB5FEF78EF9DC
:106F900000226946002843D000200A54401C1028D3
:106FA000FBDB2E230B70CA730020CA7B0B5C401CDA
:106FB000D2180B46CA730F28F7DB10211846FEF7CC
:106FC000A2F9082806D0002804D0124907A2B4313B
:106FD000FDF790F9F0201FE044220020302500202A
:106FE0005C2000200D6C0100062000202E2E5C6528
:106FF00076656E74426C652E6300000042200020AE
:10700000432000201F020000FB0300005820002046
:10701000A82000207F0600003ADF2ADF01205CE67E
:10702000AE2300920192029203920B70CA73002069
:10703000CA7B0B5C401CD2180B46CA730F28F7DBC7
:1070400010211846FEF75FF9082805D0002803D064
:10705000774A7849FDF74EF900203EE67FB5FEF706
:1070600025F900256C4600280095019502950395A9
:107070001FD046212170601C05F02AF96846C573AF
:1070800000216A46D07B625C491C80186A46D07336
:107090000F29F6DB10211046FEF735F9082806D037
:1070A000002804D06349624A6B31FDF723F90120BF
:1070B0008CE6C6212170E5730020E17B225C401C38
:1070C00089182246E1730F28F7DB10211046FEF7DE
:1070D0001AF9082806D0002804D05649544A7B31B2
:1070E000FDF708F9002071E610B5044686B00020CF
:1070F00000900190029003902046FEF7D7F80028F8
:107100001BD0601C05F056FB3D2168460170102124
:10711000FEF7F9F801200146684610310174601C41
:1071200008F046FE82B2611C04A87CDF00280BD068
:107130003F4A4149FDF7DEF806E0BD206946087088
:1071400010216846FEF7DFF8012006B010BD30B50B
:10715000044687B0002002900390049005902046DA
:10716000FEF7A4F8EA2500282AD0684605F056FA6A
:10717000684600786178884222D168464078A178D4
:1071800088421DD168468078E178884218D16846E7
:10719000C0782179884213D16846007961798842A4
:1071A0000ED168464079A179884209D16A206946A2
:1071B0000872102102A8FEF7A6F8012007B030BD22
:1071C00068460572F5E710B586B000240194029474
:1071D00003940494FEF76AF800281FD0172069462C
:1071E0000871C8741C22022303211046009405F084
:1071F00073FC124800780028A7D001AC082210497F
:10720000601C08F0F7FD102101A8FEF7ADF80C494D
:1072100008220831601C08F0EDFD03E0C520694636
:107220000871C874102101A8FEF76DF88DE7000001
:10723000EC6F0100470700009A080000762000204C
:10724000FC2D002030B53F4A0146137800203E4A0D
:10725000002B0BD0032010703C480069400AC00787
:10726000C00F01D0032030BD012030BDFF24FF2519
:107270005F349135A1420AD3FF207830814201D298
:10728000012004E0A94201D2022000E0032013788B
:10729000032B04D0022B08D0012B0ED014E0FF23C7
:1072A0008C33994210D903200EE0FF2373339942A7
:1072B0000AD9A94208D2022006E0A14204D9FF233C
:1072C0007D33994200D20120107030BDF8B52048BE
:1072D000012500240078AD02274600282CD01B4948
:1072E0000120C86002210022084605F043FB002669
:1072F00005F062FB80B2854200D90546844200D287
:1073000004463F18761C0A2EF2DB781B001BC108CE
:107310004B22D20051430F48890A0C4B01220160D5
:107320009A60FF225F32914205D8094900220A7013
:10733000FF2155310160F8BDFF2006495530086036
:10734000F8BD70471220002070200020000500507A
:107350004B200020582000207CB5FE48FF4C0178CF
:10736000FD4D206800290AD0FD4E012910D009F0FA
:10737000E3F831680AF0F2FB20D864207CBD29696B
:107380000A688242F9D264214A430146104612E05B
:10739000694601A80AF06EFA28690068002805D03D
:1073A000009948437D21C90008F085FD2168884285
:1073B000E3D26422504308F07EFD0CE0206809F01F
:1073C000BBF80446E74930680AF0F2FB214608F0B2
:1073D000BFFF09F06DF8C0B27CBD70B50646FFF77F
:1073E000BBFF0124E04D002E11D0642812D3287871
:1073F00000280FD1DD48DF490470DD480470062005
:107400000870FCF799FFDC490E20087001E0642841
:1074100000D32C7070BDF0B5D8480024007887B038
:10742000002867D0D6480078002863D0CA4FD548D6
:107430003D69C069296881425CD000206E463454A1
:10744000401C1028FBDBC648C64900680AF0B0FBA8
:1074500009F02EF8092269460A70296849024A0E85
:1074600069464A7029880A0A69468A702A78CA7069
:10747000C4492A68CA61020C6946CA71020A0A72C2
:10748000487204A905A80AF0F5F93F69049D386817
:107490007D216843C90008F00EFD000C6946887222
:1074A00038687D216843C90008F005FD000A694677
:1074B000C87238687D216843C90008F0FCFC694641
:1074C0000873B1483C21006808F0F5FC020A6946DF
:1074D0004A738873CC7300206A46D17B325C401CAF
:1074E00089186A46D1730F28F6DB10226946A7482F
:1074F00001F0D1FBA6480078002804D09648006926
:1075000004609748046007B0F0BD10B5A048A149D9
:1075100000780978084301D10AF0BAF900219E4A9F
:10752000084604F031F910BD10B5002400E0641CD9
:107530009A4808F03DFCA042F9D810BDF3B5984830
:1075400095B0017810A8077D407D119010A8807D2E
:10755000109010A8408B0F9010A8467E057EC47D29
:1075600000297CD00DA805F05AF908A8017D6846CD
:10757000017708A8417D6846417708A8817D684663
:107580008177418F418408A8417E4170017E01705E
:10759000C17D6846C1778348834A01781278914358
:1075A00001D0002101706C4812A9006900680090A8
:1075B0006B480068019013A80AF05CF966480069FE
:1075C0000068002807D0129948437D21C90008F0BF
:1075D00072FC08F0B1FF02906B480068002802D0EE
:1075E0003C2108F068FC0390FFF7B6FE694608747A
:1075F000684604F09DFD6A4809AA0378089907982F
:10760000FDF72EF909AA0899079804F01BFF6448B2
:107610000078002852D0504900200969086050497C
:107620000860594908605E49087056494861086118
:107630004D49087069460F77119A4A77109A8A77F0
:107640000F9A4A8408A94E700D706946CC7742495A
:1076500009690968009101900DA90EA800E02FE0CA
:107660000AF008F93C480D9900690068484335D094
:107670000020029044480068002802D03C2108F015
:107680001AFC0390FFF768FE69460874684604F028
:107690004FFD6946488C08A9087108784871694609
:1076A000C87F08A988710020C87108720A900B90E1
:1076B0000C9009AA0899079804F0C4FE17B0F0BD11
:1076C0006846077711994177109981770F9941841E
:1076D00008A8467005706846C4775CE77D21C9003C
:1076E00008F0E9FB08F028FFC3E773B584B0002079
:1076F000009001900290694603908E7C304604F021
:10770000AFFB69464D7C8400284604F0A9FB0F219D
:1077100008F0D1FB24186946C88A0870087D4870B3
:10772000C87C8870304604F09BFB8600284604F035
:1077300097FB0F2108F0BFFB30186946C870FF2087
:107740000871641C6D46E4B208221849681D08F0EF
:1077500051FB2DE05F200020D02400206C20002071
:10776000442300200000C842602000204420002064
:107770000D2000200C2200200B20002006200020DD
:10778000842200207420002080220020B4240020C5
:10779000102000204A20002017740100102500202E
:1077A0006320002065200020642000206C2300203E
:1077B000992069468873204604F018FE641EE4B2DE
:1077C0000822FE49681D08F015FB6946204604F0B2
:1077D0000DFE06B070BD10B5F94C6079002804D0DC
:1077E000A06A02F07EFC0020607110BD30B5F54A41
:1077F00001238400A418236000248D00AA181460BB
:10780000F14AD0605161F148506204201060F049A3
:107810008B600B60EF498C60EF494860EF4A11685C
:10782000FF231B04994303239B0519431160EC4973
:10783000086030BDF3B5EB4983B00878002806D066
:10784000401E0006000E087001D100F005FEDC4C61
:107850004B21E089C900401C80B20025E0818842AC
:1078600002D9E581FFF76DFDDF4E01273078002852
:107870000BD0DE48A7710570E07800280DD11921E2
:107880001820FFF7B3FFE77007E0A079E17808421E
:1078900003D005F057FCE570A5716846049A03997A
:1078A00008F0A8FA0120FFF798FDD14800780028D9
:1078B00002D0CF49401E087009F012FCCD48217A51
:1078C000007808420ED0CC4825720770012009F0DC
:1078D00045FDC7480078002809D101990098FFF7B5
:1078E00004FF04E0084302D1C34827720570C3486F
:1078F000C34A0178002907D1C249C34B09781B78D4
:1079000019431378194319D0E179491CC9B2E171BF
:107910003C2902D83178002911D0E5710570B948A9
:10792000BA490570B8480570012015704004C86058
:10793000B748B84907701E20088000E0E571A048EC
:10794000017900290AD03078002807D1491E9C48C7
:107950000906090E017101D1FFF73DFFAE4800781D
:1079600000280CD03178002909D1401EAA49000610
:10797000000E087003D1A9480570FCF7F4FCA84874
:107980000078002860D1A7480078002803D0A648D6
:107990000168491C0160A5480078002803D00199BE
:1079A0000098FFF7CBFD68460478317820460843FD
:1079B0001BD19548904A007812781043084308D1AB
:1079C0009B48019900690268009804F0B0FE8E4956
:1079D00008708C4831780078084306D1022201995A
:1079E000009804F049FE87490870804991480A7858
:1079F000062A0CD102780623521CD2B202708648A5
:107A0000052A037004D38C480D7007707A480570FE
:107A1000592C03D101990098FFF790FD68468078B2
:107A2000232811D16846407859280DD1592C0BD103
:107A30007F48006905607C480560804805606048B3
:107A4000056145617E48057005B0F0BDF0B595B0A3
:107A5000012009907B480168491C0160FDF7C2FACA
:107A600008A8013008AA411C0092831E0290C21E81
:107A7000019107A8411CFCF773FE69487249007820
:107A8000097808437BD171480078002802D07048FB
:107A9000067802E0202002260990494C524FA07837
:107AA000002500280AD010226A496B4801F0F3F83B
:107AB0003878002801D105F045FBA57067480078AB
:107AC00000284DD0514910208860607A012827D1C4
:107AD00003950495059512A8069504F02DFF03A8BB
:107AE0000A2212A9013008F085F9152069460873A9
:107AF000002003A96B46DA7E0B5C401CD2186B4653
:107B0000DA760F28F6DB05F01DFB1C220323022189
:107B10001046009504F0E0FF102103A805F002FBD9
:107B2000607A401CC0B2607203280ED305F00AFBD5
:107B30003878002803D019211820FFF757FE47484E
:107B4000324905701020C8606572A078002807D0FF
:107B500010224049404801F09EF805F0F3FAA57064
:107B60006846407F099908F0A6F9002903D16846C4
:107B7000007F002804D0387800280AD014E095E06F
:107B80003878002810D10120204A10219160E0723D
:107B90000DE0A17AB01C814206D3E57205F0D2FA5D
:107BA0001A49A5721020C860E07A00287ED0A07A19
:107BB000B0427CD103231C22022151E06423002027
:107BC00074200020000700500025004000F0EB006A
:107BD00000200040002100400023004000E400E0BD
:107BE00000E100E0D3200020122000200B20002024
:107BF00066200020BC2200206420002004200020F9
:107C000005200020422000204320002000050050D5
:107C100049200020182000200C2200200A200020EB
:107C20001020002054220020802200206320002009
:107C3000D0240020472000200D20002044230020D5
:107C400060200020E02100204A2000206920002040
:107C500067200020FC2D0020B424002044220020B6
:107C60001046009504F038FF09A9002004F0F3FA4B
:107C7000039504950595072069460695087310A994
:107C8000C8886946487310A908796946887310A99D
:107C9000C8786946C87309988A4E000C0874099818
:107CA000000A487409988874314601E02FE02BE0FF
:107CB0000A9809F07DFF08F0FBFB020C6946CA74C4
:107CC000020A0A75487531460B9809F071FF08F0F1
:107CD000EFFB002822D07D21C90008F0ECF8020C4F
:107CE00069468A75020ACA750876002003A96B46A0
:107CF000DA7E0B5C401CD2186B46DA760F28F6DB76
:107D0000102103A805F00EFAA07A401CA0726E4A5A
:107D1000082107A803F038FD15B0F0BD6846857549
:107D2000C5750576E1E710B5684900200873684A13
:107D3000014603F029FD10BDF0B589B000200646CC
:107D40006D462E54401C1028FBDB43202870F02089
:107D50005E4C687008A9207808705E480A4604A93D
:107D6000007804F02CFC08A909782778B94201D1E1
:107D700000282FD00E21A81C08F099F85648017849
:107D800068468170554801786846C170544801784A
:107D9000684601714771534F3878002810D0002091
:107DA0006A46D17B2A5C401C89186A46D1730F2829
:107DB000F6DB10211046FDF7A6FA2078401C207053
:107DC00020785F2804D948483E7006702670667097
:107DD00009B0F0BD40480178684681703F4801789D
:107DE0006846C1703E480178684601714771017D5F
:107DF0008171417DC171817D0172C17D4172017EC0
:107E00008172417EC172817E0173C17E4173017FA7
:107E10008173C0E733490978002906D02B4A91695C
:107E2000814201DD081A906186E7704710B5002194
:107E30002E4A084603F0A8FC10BD10B5234C1E20A6
:107E400020716079002806D100222949A06A02F039
:107E50000DF90120607110BD08B50020254B0622E8
:107E60000521009002F069F8002803D022A22649DB
:107E7000FCF740FA1548254A0121203002F0AFF8FE
:107E8000002804D07F211CA2C900FCF733FA0F4858
:107E90001F4A0121243002F0A2F8002804D01A4918
:107EA00015A20A31FCF726FA08481A4A012128309F
:107EB00002F095F8002804D013490FA20F31FCF707
:107EC00019FA08BD0000C84235780100742000206E
:107ED000E78101004620002052200020532000208E
:107EE000542000205E20002043220020397D010024
:107EF00066060000602500202E2E5C74696D6542C8
:107F00006C652E6300000000F30300000B75010098
:107F10004D7A0100277D010010B5FFF78EFF10BDDF
:107F200010B5FFF78AFF93480078002807D19249DF
:107F300001200870914906200870FCF7FDF910BD7A
:107F40007047F8B58B48007800282DD1FFF7BEF9AF
:107F5000FFF7F7F98A4C8B4D2278287813468A4E22
:107F600003433078894F034338788A49034388486C
:107F7000007883430120002B12D04B7A5B1CDBB2CC
:107F80004B728549022B10D9002222702A70327060
:107F90003A70824B4204DA60814A10701E2006E07B
:107FA00048720870FCF7C8F9F8BD002AFCD00880B8
:107FB000F8BDF8B5774C0025207A01260227002865
:107FC0000ED025720A2000F0CFF8012801D165718A
:107FD000A770092000F0C8F8002801D1A671E77049
:107FE0006089002801D0401E60812079002802D0DD
:107FF000012845D133E0102000F0B6F8644901288B
:1080000009D0A089401C80B2A081097800291AD02B
:10801000A581267121E06078002804D0401E00066A
:10802000000E60702CD1267167700878002827D167
:10803000A089962824D86089002801D065811FE096
:10804000FFF77FFF1CE0962804D9E079002804D1CF
:10805000E67102E0962800D2E571677010E010200A
:1080600000F082F8002801D0A581F6E760780028AA
:1080700004D0401E0006000E607001D167702571AB
:108080006079002802D001281CD115E00A2000F0F8
:108090006BF8012815D1A078002804D0401E0006F6
:1080A000000EA0700ED1334966710E703E493D48F6
:1080B0000E701421017005E00A2000F055F8002828
:1080C0000BD0A770A07900281FD0012823D1092048
:1080D00000F04AF800282BD01CE0A078002804D03B
:1080E000401E0006000EA070ECD16571FFF7EEF89F
:1080F000FFF727F92B480178142900D005701D4897
:1081000005702A480570A671DCE7092000F02CF8FC
:10811000012801D0E770F8BDE078002804D0401EA7
:108120000006000EE070F6D12048A6710670F8BD7A
:10813000E078002804D0401E0006000EE070F6D162
:108140001A48A5710570F8BD124810B50023184AE9
:108150000221103003F02EF8002804D0FF2115A2D0
:108160004831FCF7C7F810BD0C490969C140C80780
:10817000C00F7047122000200D2000200C2200208C
:108180000420002042200020432000200520002061
:1081900010200020A82000201820002000050050FA
:1081A000492000200B2000204B20002041200020EF
:1081B000660600002E2E5C627574746F6E426C65EC
:1081C0002E6300000020864902E0401C642806DA85
:1081D0000A69120CD207D20FF7D0642801DB012004
:1081E000704700207047F0B587B00024FFF7E1FE2C
:1081F0007C497D4F0878002801D010200DE07B4895
:108200000078002804D03878142807D03C7005E0A6
:1082100077480078002801D011203870754A3878E6
:108220001378754E984202D0107001223270734A52
:10823000734D0E2875D008DC00280FD0012832D0ED
:1082400002283DD003286DD14AE00F286BD01028BA
:1082500079D0112869D01428F5D19CE0FFF736F8C1
:1082600004A90131481C04AA0092C31E0190021FF8
:10827000029103A8411CFCF773FA32780499039821
:1082800007F0B8F959492878097888434AD02C7002
:108290003078002846D15B480078002801D00F20B4
:1082A0006EE001206CE058483278006901210068D6
:1082B00007F050FA2878002834D02C7002205FE0B4
:1082C0005249106809F074FC08F0F2F83278022183
:1082D00007F040FA287800287FD02C7003204FE068
:1082E00005A906A809F0C6FA4948059900780028AA
:1082F00045480069006819D0484308F01DF9454910
:1083000008F026F807F0FAFF434A444B07F0C2FE94
:1083100007F082FE08F0CCF83278032107F01AFA51
:1083200058E04FE02DE044E00DE02BE0484308F03A
:1083300003F9384908F00CF839498842EADB394832
:10834000E8E72C7033E029480078002845D02E4813
:108350000C700169374D0C60334914600C60006982
:10836000324900680860324804602878002803D148
:10837000FCF7D5FB012028702F490120087014203C
:1083800038702AE03078002802D0002004F048FF3E
:1083900007F04FFC21E03078002802D007F079FC8C
:1083A00074707078401CC0B270703C2815D33C705B
:1083B00013E03078002802D0002004F031FF07F0ED
:1083C0002DFC07E03078002802D0002004F028FFC0
:1083D00007F04FFC28780028B3D1347007B0F0BD07
:1083E00000050050102000200B200020122000204B
:1083F0004A2000200C200020D02000204423002010
:10840000A820002064200020D0240020000020416B
:108410005C20002000007A44AC1C5A643BDFE33F40
:1084200000401C46003C1C46802200208420002086
:10843000882000200F2000204820002010B50C4884
:10844000062141700178002905D1012101703C21EC
:108450000F2001F0E4FB10BD10B50548017800299C
:1084600005D0002101709621282001F0D8FB10BD15
:10847000D220002010B5FD4C6168A068884210D061
:108480002C21FB4A484381184B68012B0AD0105A13
:108490001C3197DF002804D1207A401C4007400F90
:1084A000A06010BD105A0989002295DFF2E738B5A7
:1084B0000546F04A6846012102800224847028891A
:1084C0006A4690DF010003D0284600F0BCFA38BDB0
:1084D000E648C46038BD38B50446E748018CFF293A
:1084E00003D0818DFF2908D014E0C08B6946401C61
:1084F00008804880208993DF06E0408D6946401C53
:1085000008804880208993DF010003D0204600F0D6
:108510009AFA38BDD5490420C86038BDFEB50E466C
:10852000C98807460846FF380B3807D0093005D000
:10853000002913D0384600F086FAFEBDCE48C18B24
:10854000002909D0418A002906D0408D002803D097
:108550003846FFF7C0FFFEBD0521EBE7C648002403
:1085600001460A3102910C312230254601910090DA
:1085700016E00A2068438419E189C0480E340918BE
:1085800009D0BF48081819D0BC49C91CC84206D137
:108590002146029801E02146019800F07AFA6D1C0C
:1085A000B089A842E5D8002C0BD020896946401C30
:1085B0000880B14800894880384605E02146009887
:1085C000EBE7AD493846891D00F04AFAFEBDF7B524
:1085D000A74D00241646A54F303D5EE038690300E4
:1085E00008F0F6FE09060B10151A1E2328375A004C
:1085F0000198005D287201204DE00198005D6872CD
:10860000022048E00198005DA872032043E0019831
:10861000005DE87204203EE00198005D287339E0B7
:108620000198005D6873062035E00198005DE881DF
:10863000072030E00199E889095D09020843E881D3
:10864000082038618A482038786100207880388096
:1086500022E078881F2805D201997A69095D1154B2
:10866000401C78803888401C80B23880E98981427B
:1086700012D17888202801D11F20788080B2E8812B
:108680007A69002111540320286000980168784815
:108690003038884705203861641CB4429EDBFEBD3B
:1086A000FFB51646714A81B0D0681D46052802D034
:1086B000082005B0F0BD50682C234343401C400700
:1086C000400F50606A4C6C481C19408AE083204679
:1086D0000830606200272784012020772046277217
:1086E0000422093007F086FB05200FE029782218C4
:1086F00011726988401C002905D022181172401C93
:1087000021180F72401C761EF6B22D1D002EEDD1E1
:10871000608401980089208002206060FFF7AAFE33
:108720000020C6E770B50446088A0C3190B00228D4
:1087300044D3514A0B88D58B1046408DAB4204D1AF
:10874000167E6B469E71D28A07E0834236D14A4B31
:1087500020331E796B469E71528C9A800A88AA42F9
:108760002ED188791872C8795872087A9872487A26
:10877000D872488998818889D88102200090216820
:10878000184688476A46107A002817D1012108A8A0
:10879000017420215186032202756846C1860CAB04
:1087A000022203A92046FFF77BFF002803D035A251
:1087B0003849FBF79FFD2D490020086110B070BDBE
:1087C0008242FBD18A882046891DFFF700FFF5E72A
:1087D00070B5044625480121274DC1602978FE293E
:1087E00005D10A216156491C09D0A17A29700906D0
:1087F000090E04D180692E221F4907F0FBFA2E21B1
:108800001D4807F054FBFF202870E0720020C04391
:108810002081A07270BD0A68002A01D0012A01D10E
:10882000097981727047F8B5104D0A88EC68FF2706
:10883000114E230008F0CCFD073E054761666B33FF
:108840004200102A36D1898801810A214156044606
:10885000481C21D02E204143A8692E220918064821
:1088600007F0C8FA0620E86017E00000D4200020D6
:108870006828002031F40000F8290020F3EDFFFF04
:10888000244BFFFF2E2E5C626C655F616E63735F2D
:10889000632E6300C50200003770204608E0172AE7
:1088A00001D0142A0AD171889D4A914203D03770B1
:1088B000FFF7FDFDF8BD00F0E1F8F8BD112AFCD18D
:1088C000FFF786FFF8BD302AF8D10A46C98800298B
:1088D00002D000F0B8F8F8BD117C3171D1897180F7
:1088E0009189002907D0518AF180918A3181B11D87
:1088F00000F0B6F8F8BDD188EBE7322ADED1FFF7F9
:108900000DFEF8BD332AD9D100F0D0F8F8BD382AD1
:1089100004D0372AD2D1FFF7ADFDF8BDFFF702FF33
:10892000F8BD100003D07F49C969496808477047FE
:108930007CB50A68002A29D002604A684260002299
:10894000D24382720024C4728A68C260C96801611D
:10895000611E0181FF252E21734807F0A8FA734894
:1089600069460463446370486E4C05700120E06002
:10897000C880302088806E482146009020316846AB
:1089800000F02EFC68493039A1617CBD07207CBD18
:1089900070B5644D2C236C68644E6343641C64079B
:1089A0003036640F9B196C60D98302211C465984B0
:1089B00008345C6200241C8401241C771A72120A99
:1089C0005A7218805960FFF755FD002070BD564956
:1089D0000089098C0122DBE753490089098C0022B8
:1089E000D6E751490089898D0122D1E74E49008996
:1089F000898D0022CCE74B494B4810B5002330222B
:108A00002031303800F008FD002806D04549FF220B
:108A1000896905280A7000D1002010BD42494148EB
:108A200010B5002330223039203000F06BFC10BD2F
:108A300010B53C48C068002804D03A4830212030A6
:108A400000F02FFD10BD00B5364B8DB00722DA6067
:108A50000122009202910168684688470DB000BD6E
:108A600030B40446008992DF010002D0204630BCB9
:108A7000E9E72C490320C86030BC704700B5294A9B
:108A80008DB00521D16000210091016868468847BA
:108A9000E4E78A7882700A8802800A790271CA88BB
:108AA000C28009890181FF214181704770B5CA8860
:108AB0001346FF3B0B3B07D0093305D0002A05D0F6
:108AC0001146FFF7C0FF70BD0521FAE78A89164BF2
:108AD000002A19D0CA895E8A551E164CAE4204D1AE
:108AE000098AA14210D19A820EE0DE8BAE4204D1F7
:108AF000098AA14208D11A8406E05E8DAE4203D1F4
:108B0000098AA14200D19A85198CFF2905D0998D37
:108B1000FF2902D0FFF7B2FF70BDFFF7DCFC70BD8C
:108B200031F40000D4200020F8290020382800204B
:108B30002389010002290000F0B500240546601CCD
:108B400001078FB0090F08A8103108940170601C4C
:108B50000107090F08A8103141708178F9273940C1
:108B6000891C81701C2101A807F0A3F968460179CE
:108B70001020014368460171029408A804940594EA
:108B800001260794069086710821C94368468184AE
:108B900031461031009401703146103141708178B6
:108BA000F7203940891C0140EF20014031436846DD
:108BB000817014210AA807F07CF909A80A90684678
:108BC0000B9006861421448681862B4668880C33D8
:108BD0000AAA01A9A2DF0FB0F0BD10B50C4600280B
:108BE0001BD0002C19D02188012927D0102915D09D
:108BF000112915D0502910D1E288038AA11D9A426B
:108C000002D10B8B022B0FD083889A4205D1836946
:108C1000002B02D00A8B1A31984710BDA18801E0C1
:108C20000021C943818210BDCA7E8B7E1102194387
:108C3000C907C90F00D00121817510BD207AFFF747
:108C4000E9F8207AFFF7E6F810BD38B50D460400C4
:108C50001FD0002D1DD00020C043A0822868A06135
:108C60000020A0750121684681700F21C943018051
:108C7000A21C69460120A0DF002809D12946204610
:108C8000FFF75AFF002803D12946204600F048F894
:108C900038BD0E2038BD77B585B00E460446002598
:108CA000FFF7CCFB002C0DD0A08A3E4988420BD0A8
:108CB000A07D002808D06846808B142806D907209C
:108CC00008B070BD0E20FBE70820F9E700200090F7
:108CD000019002900390A1896846018007A8029044
:108CE0000121039668468170A08A6946A6DF2E4955
:108CF000097800290BD011E0322000F0DDFEA08AB7
:108D00006946A6DF401CC5B20A2D04D306E02749F8
:108D1000884203D1264E30780028EDD12846CFE78F
:108D200070B58EB005461C21684607F0C2F869464A
:108D300008780E21084369460870002401940394C2
:108D400004940594012608A906948E700920C04356
:108D500069460884601C0007000F103007940877EC
:108D6000304610304877887FF9210840F721801C71
:108D70000840EF210840304369468877142109A84C
:108D800007F097F808A8099007A80A9069468E8509
:108D90001420CC85088668882B1D09AAA2DF0EB096
:108DA00070BD0000FFFF00005D20002003300000C8
:108DB0000E20002014225043F84A0021801801712F
:108DC000C18008220161C260416101817047FFB525
:108DD00083B00F46F24D069A05990646EB6811439B
:108DE00003200191002B01D0E96803E000290ED097
:108DF0000121E960059A01249200240700920B00EA
:108E000008F0E6FA07320721345474833200022155
:108E1000EFE7E4484169491C05D02169406989B2FE
:108E200007F049F800E060692169401E89B24843B3
:108E3000216909048A0C216989B2794351DF00282C
:108E400012D102210FE0384650DF00280CD10599DD
:108E5000002901D0032106E0069900291FD13178AD
:108E6000042968D020E0E96007B0F0BDCD48416931
:108E7000491C05D02169406989B207F01CF800E05F
:108E800060692169401E89B241432069059A80B218
:108E9000784351DF0028E7D10699002901D0042149
:108EA000E1E7317804292ED00521DCE7BD4841698E
:108EB000491C05D02169406989B206F0FCFF00E039
:108EC00060692169401E89B2484371884218009840
:108ED0001018226992B27A43521800995318014629
:108EE0001846069A51DF0028DBD0BDE7206971885B
:108EF00080B2784380188A08316951DF0028B3D1E5
:108F00000199002917D00621ADE7A6484169491CFF
:108F100005D02169406989B206F0CDFF00E06069A3
:108F20002169401E89B24843216989B206F0C3FF16
:108F300050DF002898D1072195E7F8B59749142309
:108F40000A780F205A4354189549227926698F8848
:108F5000241D022A1BD001252D07042A2AD0052A08
:108F60005AD1286981B2304606F0A5FF0146A38890
:108F700028699A1980B24843101A82086088181824
:108F8000861928694B1C80B25843801B33E0B80215
:108F900062882169121A0918A38830181818012349
:108FA0009B029A4202D2920851DF30E0FF22013246
:108FB00051DF2CE0A3687C48190108180189428917
:108FC0004068B04203D160885143814218D0092BD8
:108FD00016D0286981B2304606F06DFF0146286937
:108FE00080B24843301A820828694B1C80B258432B
:108FF00063889B19C01A83082046FFF7E8FE06E045
:10900000286981B2304606F056FFC01950DF0028AB
:1090100002D1624901228A70F8BDF8B55F4C069E04
:1090200065781E2D1DD027787D19EDB21E2D01D338
:109030001E3DEDB214277D432D1928716A6103C9C5
:109040002961E860EB802E81A1780020002904D1FD
:10905000FFF773FF112800D100206178491C61706F
:10906000F8BD0420F8BD38B502464C4814230178F9
:1090700059430818C3680179092B08D04A4C1B01D1
:10908000E458C388009343690C30A04738BD444B73
:1090900010331C68F5E7F8B5404B9978012914D1D5
:1090A00000253F499D70CA68082A05D002280FD0C4
:1090B00003280AD10D2006E0022807D00D7000F029
:1090C000B3FA002801D0FFF7CEFFF8BDCD60F6E778
:1090D0003248142403783249634318188B885B1C88
:1090E0009CB28C800379001D022B05D14688A10219
:1090F000B14201D3012700E00027052B01D1072A47
:1091000003D00021042B02D003E00121FAE7072A53
:1091100003D00026042B02D007E00126FAE740889E
:10912000A302834201D3002A1AD000203143014315
:109130003943C4D01A4E2846F560FFF794FF174C08
:109140002078FFF737FEB5806078401E6070207889
:10915000401CC0B220701E28B1D31E382070AEE76C
:109160000120E3E770B500250D4C0C48A580E560B3
:109170000570457085702E463046FFF71BFE761C45
:109180001E2EF9D30748658041690604491C0DD09D
:109190003169406989B206F08EFE08E0282A002075
:1091A000FC20002000100010842C00207069316920
:1091B000093889B24843A060F8492846A5800022B2
:1091C0001301C8505B1818819881521C5881082AD5
:1091D000F6D3F3490860888001212170E06070BDFA
:1091E000F8B50446EE480F461038007800281ED027
:1091F000002C1ED0002F1CD02068002819D001257B
:109200002D07A688286980B2864223D8102E21D344
:10921000E088009000281DD0E2484169491C0AD02E
:109220002969406989B206F046FE014604E008203B
:10923000F8BD0E20F8BD69692869D94A80B2491E77
:109240004143009B103A906873431B18994201D325
:10925000B10701D00720F8BD5188082919D0CF4B9C
:109260000E013960F2187860506027689F51A3881A
:109270001381E3885381A388E48800266343761C26
:109280002C69B6B2A4B29C4205D22C69A4B21B1BB5
:1092900002E00420F8BD00232C69A4B220182C6938
:1092A000A4B29C42EBD9BE4B103B9860491C9681FE
:1092B00059800020F8BD70B5B94B103B1B78002BCE
:1092C00018D0002818D0002A16D00368082B0FD217
:1092D000B24C1E01A559002D0AD0456830190489E9
:1092E000614369184589406865432818884205D854
:1092F000072070BD082070BD0E2070BD13600020D7
:10930000516070BDF8B50446A5481E461038007877
:1093100015460F4600281DD0002F1DD0002C1BD055
:109320002068082814D201019C484258002A0FD016
:1093300009184A890889496842435118626891426C
:1093400006D9002D04D0A84202D3A919814205D91B
:109350000720F8BD0820F8BD0E20F8BD384600F003
:109360005DF9002811D0304600F058F900280CD0E3
:10937000606800F053F9002807D02B463A46214692
:1093800002200096FFF749FEF8BD1020F8BDF8B5A1
:10939000044683481E461038007815460F460028BC
:1093A0001DD0002F1DD0002C1BD02068082814D2FF
:1093B00001017A484258002A0FD009184A890889C1
:1093C0004968424351186268914206D9002D04D081
:1093D000A84202D3A919814205D90720F8BD082067
:1093E000F8BD0E20F8BD384600F018F9002811D05D
:1093F000304600F013F900280CD0606800F00EF938
:10940000002807D02B463A46214605200096FFF754
:1094100004FEF8BD1020F8BDF8B5074660481E46AA
:109420001038007815460C4600281DD0002C1DD0A1
:10943000002F1BD02068082814D201015748425839
:10944000002A0FD009184A890889496842435118EF
:109450006268914206D9002D04D0A84202D3A9190E
:10946000814205D90720F8BD0820F8BD0E20F8BDBF
:10947000384600F0D3F8002811D0304600F0CEF87E
:1094800000280CD0606800F0C9F8002807D0606898
:109490002A468119384606F0ADFC0020F8BD1020A0
:1094A000F8BDF8B504463E480E461038007800284E
:1094B00023D0002C23D0206808281CD2374D00016F
:1094C0002958002917D04019418902894068514321
:1094D0000918606881420ED900F0A0F8002810D069
:1094E00021686068090149194A680989801A06F0EB
:1094F000E2FC002907D00720F8BD0820F8BD0E20A7
:10950000F8BD1020F8BD00200246009033462146E9
:109510000420FFF782FDF8BD2149103909780029A0
:1095200006D0002806D02049497801600020704705
:10953000082070470E207047194A103A1278002A06
:109540000CD000280CD000290AD00268002A07D0CD
:10955000134A1368002B05D0042070470820704779
:109560000E20704709230B600068106000207047D0
:10957000F8B504460A481E461038007817460D46CE
:10958000002807D0002D07D0002C05D0206809281E
:1095900022D10BE00820F8BD0E20F8BD842C00205D
:1095A0000C21002000100010282A00202648006806
:1095B000002811D0084600F031F800280ED03046BF
:1095C00000F02CF8002809D03B462A46214602200C
:1095D0000096FFF722FDE0E70720DEE71020DCE73A
:1095E000194A08B5103A1278002A05D0002805D08B
:1095F0000268092A10D103E0082008BD0E2008BD2A
:10960000114A1268002A07D00B46002201460420A6
:109610000092FFF702FD08BD072008BD800701D0BA
:10962000002070470120704710B50848002440789A
:10963000002807D0FFF781FC040003D0112C01D0D3
:10964000FFF711FD204610BD0C210020282A002024
:10965000FFB583B0074600200C9C86462678054659
:109660003AE07868A90041180A88684682804988EB
:10967000C1800022694601A864DF002810D1684635
:1096800001780598814226D17046002801D0002239
:1096900000E002222078891841181F2902D90C20E5
:1096A00007B0F0BD7146002908D1401CC0B2411C72
:1096B000069B049A21701A54012086462178069848
:1096C0000A18694601A864DF0028E9D169462078B4
:1096D0000978401820706D1C3888A842C1DC70469B
:1096E000002804D020780699801B401E8855002051
:1096F000D6E7F8B51546069C1E460746022200949A
:10970000FFF7A6FF002806D1334610222946384627
:109710000094FFF79DFFF8BDF7B582B0002605461F
:10972000167000681446002805D02846039900F0FA
:10973000DEF806002DD1687900281BD02078039F21
:10974000001D1F2824D8684679DF002821D1217800
:109750000322481C20707A5421781922481C20705A
:109760007A542078C1196846008800F0BBF8217847
:10977000401820702989002922D001208446EA68F7
:109780000398002A07D023785A18921C1F2A04DD58
:109790000C2005B0F0BD0720FBE75A1C2270491CC5
:1097A000C15422786746511C2170875423782A8936
:1097B0001818E96806F01EFB2078297A40182070F6
:1097C0002869002815D00021415622788C46D01CEB
:1097D00003991F28DCD8501C022320708B54227858
:1097E0000A23501C20708B5420786246431C23703F
:1097F0000A54A88A002809D028460094062202218B
:109800001430039BFFF775FF0600C2D1A88B002818
:1098100009D028460094072203211C30039BFFF740
:1098200068FF0600B5D1A88C002809D0284600940E
:10983000152214212430039BFFF75BFF0600A8D1FB
:10984000E86A002805D02246039900F085F8060052
:109850009FD1286B002805D02246039900F0BBF861
:10986000060096D13820405D002806D022462846C2
:10987000039900F0E2F806008BD1304689E770B515
:109880000D4692B000216A4611700724117100281C
:1098900012D00189002905D0C168002902D00978B9
:1098A000490702D4204612B070BD02A9FFF734FF69
:1098B0000028F8D102AE00E00026002D0BD0288948
:1098C0000028EFD101AA0AA92846FFF725FF0028A2
:1098D000E9D10AAA00E000226846037901783046FF
:1098E00072DFE0E70870000A487002207047F8B5A0
:1098F00014780746A01C15460E461F2803D8387951
:10990000801C1F2801D90C20F8BD1D20001B80B22F
:109910006946864608803019801C7DDF0028F3D117
:109920003868022805D168460088704501D80921A9
:1099300007E038790821002801D0704501D9684630
:109940000088421C3255641CE2B2B1542978801C54
:10995000081828700020F8BDF8B50D4611780646A5
:10996000881D14461F2801D90C20F8BD3388072014
:10997000062BFAD31927FF01BB4202D94D4A934265
:10998000F3D17288062AF0D3BA4202D9494FBA42BB
:10999000EBD1484FBB4203D0BA4201D09342E4D846
:1099A000481C052220706A5420781222411C217024
:1099B0002A54207841193088FFF794FF2178401805
:1099C000C0B2207041197088FFF78CFF21784018D1
:1099D00020700020F8BD70B5054600790E46801C49
:1099E0001446C0B21178821C8A181F2A01D90C2093
:1099F00070BD0A46491C2170401CB0542078FF22DB
:109A0000411C21703254207881192888FFF76AFFA1
:109A100021784018C0B22070AA88002A09D0A9680D
:109A2000002908D0801906F0E5F920782979401836
:109A30002070002070BD072070BDF7B582B002987D
:109A40001446406B0F46002832D002980025203083
:109A5000009028E00298416B0C2068430E18217892
:109A600030794A1C2270C01C785420781622411C80
:109A700021703A542078C1193088FFF733FF2178DC
:109A80004018C0B22070B288002A09D0B1680029FD
:109A90000ED0C01906F0AEF9207831794018207048
:109AA0006D1C0098EDB2007EA842D3D8002070E66D
:109AB00007206EE6FFFF000031B5054C04E0401EB4
:109AC00000902046FAF742FB00980028F7D138BDF5
:109AD000E703000038B58149814A488890420FD099
