:020000040001F9
:10400000183F00200542010017420100194201003B
:1040100000000000000000000000000000000000A0
:104020000000000000000000000000001B42010032
:1040300000000000000000001D4201001F420100BE
:1040400021420100214201009BCC010021420100DC
:1040500021420100000000007DB301002142010067
:1040600021420100214201002142010021420100C0
:1040700021420100214201002142010021420100B0
:1040800021420100F99E010021420100214201006C
:104090000F9F0100C9B501002BB7010021420100AB
:1040A0002142010021420100000000000000000048
:1040B0000000000000000000000000000000000000
:1040C00000F002F800F032F80CA030C808382418CC
:1040D0002D18A246671EAB4654465D46AC4201D140
:1040E00000F024F87E460F3E0FCCB6460126334240
:1040F00000D0FB1AA246AB463343184730070100F5
:10410000500701000023002400250026103A01D3A7
:1041100078C1FBD8520700D330C100D50B6070477F
:104120001FB5C046C0461FBD10B510BD0CF08CFABF
:104130001146FFF7F5FF00F059FF0CF0A4FA03B4A5
:10414000FFF7F2FF03BC0CF0D7FA0000401E00BFDF
:1041500000BF00BF00BF00BF00BF00BF00BF00BF67
:1041600000BF00BF00BFF1D170470000401E00BF7C
:1041700000BF00BF00BF00BF00BF00BF00BF00BF47
:1041800000BF00BF00BFF1D170470000401E00BF5C
:1041900000BF00BF00BF00BF00BF00BF00BF00BF27
:1041A00000BF00BF00BFF1D170470000401E00BF3C
:1041B00000BF00BF00BF00BF00BF00BF00BF00BF07
:1041C00000BF00BF00BFF1D17047000070B50546C9
:1041D0000C46164602E00FCC0FC5103E102EFAD248
:1041E000082E02D303CC03C5083E042E07D301CC0E
:1041F00001C5361F03E021782970641C6D1C761EF2
:10420000F9D270BD0A48026803210A4302600948D6
:10421000804709480047FEE7FEE7FEE7FEE7FEE7C6
:10422000FEE7000005480649064A074B70470000B4
:104230002405004055420100C1400100182F002014
:10424000183F002018370020183700202349224843
:104250000860704710B500F01DF8002805D021490E
:104260001F484860C813204988612048018CC9B2A2
:1042700001290ED1818C09070BD1018D0906090F87
:10428000042906D1808D0006000F02D118490120B3
:10429000886010BD1548018CC9B2012917D1818CE5
:1042A000090714D1018D09060A0F03D1828D120668
:1042B000120F0ED0090F012903D1828D1206120FA1
:1042C00007D0032903D1808D0006000F01D0002004
:1042D00070470120704700000024F40000200020F7
:1042E000DFFF07C000050040006C0040C00F00F079
:1042F00000060040704710B5FE48017800290ED135
:1043000001210170FC4900200870FC490246087038
:10431000FB498870FC48FB49006805F0B7FE10BDFA
:1043200010B5F4480178002905D000210170F64845
:10433000006805F0E6FE10BD10B5F4490A20F04C07
:104340000870607900280DD108F0AFFF642020725A
:1043500003F081FD0120EE4A607100211170E171CE
:104360006072A07110BD10B50120EA494007886055
:10437000AE2008F03AFFE2480021C171417103F01C
:1043800030FA10BD704710B5642005F0A5FBE24877
:1043900004F02DFBE04804F034FB10BDF0B5D84923
:1043A000867800220124DD4DDD4F8B7B012E08D065
:1043B000042E05D10878184302D12A703A70CC70C7
:1043C000F0BD0078002803D00228F9D18A82F0BD20
:1043D00048781843FBD11E2088822A700C703A70EE
:1043E000F0BD10B504460146CB4804F024FA20681D
:1043F00002280CD1C2490222C87C1043C874C043B1
:10440000800704D10021C74A084607F0CDF910BD46
:10441000014600B50020092901D8084600BD103921
:104420000B000CF0E5FF4A27292B2D2F31333537B0
:10443000392626262626263B3D3F41434547494B04
:104440004D2626262626264F51535557595B5D5F2C
:1044500061262626262626636567696B6D6F717354
:104460007526262626262677797B7D7F818385877C
:104470008926D3E70A2000BD0B2000BD0C2000BD1B
:104480000D2000BD0E2000BD0F2000BD102000BD7E
:10449000112000BD122000BD132000BD142000BD5E
:1044A000152000BD162000BD172000BD182000BD3E
:1044B000192000BD1A2000BD1B2000BD1C2000BD1E
:1044C0001D2000BD1E2000BD1F2000BD202000BDFE
:1044D000212000BD222000BD232000BD242000BDDE
:1044E000252000BD262000BD272000BD282000BDBE
:1044F000292000BD2A2000BD2B2000BD2C2000BD9E
:104500002D2000BD2E2000BD2F2000BD302000BD7D
:10451000312000BD322000BD332000BD342000BD5D
:10452000352000BD362000BD372000BD382000BD3D
:10453000392000BD3A2000BD3B2000BD014600B53A
:104540000020092901D8084600BD0A390B000CF0EB
:104550004FFF321B1D1F21232527292B2D2F3133E0
:104560003537393B3D3F41434547494B4D4F51530B
:104570005557595B5D5F61636567696B6D6F7173FB
:104580007577797B7D1ADFE7102000BD112000BD13
:10459000122000BD132000BD142000BD152000BD59
:1045A000162000BD172000BD182000BD192000BD39
:1045B000202000BD212000BD222000BD232000BD01
:1045C000242000BD252000BD262000BD272000BDE1
:1045D000282000BD292000BD302000BD312000BDB5
:1045E000322000BD332000BD342000BD352000BD89
:1045F000362000BD372000BD382000BD392000BD69
:10460000402000BD412000BD422000BD432000BD30
:10461000442000BD452000BD462000BD472000BD10
:10462000482000BD492000BD502000BD512000BDE4
:10463000522000BD532000BD542000BD552000BDB8
:10464000562000BD572000BD582000BD592000BD98
:10465000010710B5090F092901D9002010BD002854
:10466000FCD07D23020BDB005A4303051B0F64249F
:104670006343D2180006000F0A235843101840184D
:1046800080B210BD70B504001BD07D21C9000BF0B5
:1046900022FC0503084664210BF01DFC00022D18C6
:1046A000642120460BF017FC08460A210BF013FC8E
:1046B00000012D180A2120460BF00DFC681880B26D
:1046C00070BD002070BDFFB583B00F460CA970C946
:1046D000FFF79EFE694608703846FFF799FE694667
:1046E00048701046FFF794FE694688700698FFF7F9
:1046F0008FFE19E05D20002074200020752000202E
:104700000420002066060000A42000200C220020C7
:10471000A820002000050050E824002010250020DB
:10472000A0200020874301006946C8702046FFF79B
:104730006FFE694608710121E8B249034018FFF78E
:1047400087FF6946C8803046FFF762FE69464871B8
:10475000684607F032FB07F0A1FA012007B0F0BD70
:10476000FEB50746FE480E4601681C4615466846DB
:1047700007F09AFA68460078FFF7E0FE387068465E
:104780004078FFF7DBFE307068468078FFF7D6FE92
:1047900028706846C088FFF775FF0999C0B2088085
:1047A00068460079FFF7CAFE089908706846C07825
:1047B000FFF7C4FE207068464079FFF7BFFE0A99F4
:1047C00008700120FEBD30B53222012400280AD035
:1047D000002512280AD003071B0F092B01D8242813
:1047E00007D9104630BD0C70002030BD0D700C2074
:1047F00030BD0209122807D90A20521E4243D018A0
:10480000801EC0B20D7030BD0A204243D018C0B225
:104810000C7030BD01461339062902D90F3902291F
:1048200001D8123804E001462039012902D818388D
:10483000C0B27047014610390229FAD9411E082931
:10484000F7D9002801D000207047122070470028B7
:1048500005D0C44A1146491EFDD1401EFAD1704709
:10486000FFB589B008A847791E4614463846FFF7B9
:10487000EFFEC5B2002F05D0152F03D0302F01D089
:10488000452F03D10821B8480BF021FBB748017828
:104890006846408D0029C0B2069008A8007A0590AD
:1048A00008A8C079049008A88079039046D02846CB
:1048B0000E38102802D310380E2801D2C5B203E0FA
:1048C0002C2D01D32C3DEDB23100A74EA84831D19B
:1048D0002EE0317001E06A08B1540021016010211E
:1048E00020460BF0F4FA0698207005986070049842
:1048F000A070039807F0C4FA8500384607F0C0FAA4
:104900000F210BF0E8FA2818E070FF2020713078B2
:1049100060717078A071B078E071F07820723079B1
:1049200060727079A072B079E072F079207356E00D
:10493000E907D4D00168002DCDD1CAE702A907A8A4
:104940000CF0A8FF002000212154401C1028FADBA5
:1049500088480168884800680DF092F908908748F7
:1049600000690188864800880D1A0698207005980D
:1049700060700498A070039807F082FA86003846A9
:1049800007F07EFA0F210BF0A6FA3018C6B2E670D7
:10499000002020717B4908980DF01AF90BF098FD62
:1049A0006071000AA071E571280A207202984543DF
:1049B0006572280AA072300AE0722673142F05D09F
:1049C000292F03D0442F01D0592F08D16B480069FB
:1049D00001686B4801606848016866480160012011
:1049E0000DB0F0BD0146090700B5090F00200B000E
:1049F0000CF0FEFC10090B0D0F11131517191B1DE0
:104A00001F212123250A302000BD312000BD322086
:104A100000BD332000BD342000BD352000BD362050
:104A200000BD372000BD382000BD392000BD412029
:104A300000BD422000BD432000BD442000BD4520F4
:104A400000BD30B5012001468BB0684610314E4C98
:104A50000177216A4175206A010A68468175206ADA
:104A6000010C6846C175206A010E68460176616ACC
:104A70004176606A010AC0200143684681760025BC
:104A8000057505A870DF142240496846FFF79EFBB4
:104A9000206A0002000FFFF7A5FF69460873206A2D
:104AA0000003000FFFF79EFF69464873206A000469
:104AB000000FFFF797FF69468873206A0005000F13
:104AC000FFF790FF6946C873206A0006000FFFF7E2
:104AD00089FF69460874206A0007000FFFF782FF0C
:104AE00069464874684607F07DFE694611200877DC
:104AF00068460BF06DF982B2694607A87CDF08951D
:104B00006421684609950184FF212D314184FF21EC
:104B100085849131C18408A87ADF0BB030BD1FB500
:104B200011482638C169002932D00121C1611348DA
:104B300014212C300BF0CDF9104800212C300170DD
:104B4000084A41600172D23202824182684606F010
:104B50000BF9062000F03EFB08482C3073DF1FBD28
:104B6000E0210020360700002A20002064200020D9
:104B70004C2300208820002044230020D024002043
:104B8000842000200000C84240000010581D020090
:104B90000221CBE77047704770B5F84C01880126B9
:104BA000E38A17290CD00CDC0025102913D0112919
:104BB0001FD0132904D122462032002118467FDF5E
:104BC00070BD19291FD0392901D05529F8D11321D9
:104BD000184676DF70BDA6722671E5618088E08296
:104BE000E748E57400780028F4D1FFF7A5FBE571EC
:104BF00070BDA572A570FFF793FB0020C043E08253
:104C000005F0D5FF02E080790028F1D1207B002853
:104C1000EED1FFF784FFE67270BD10B5044605F0D3
:104C20006AFF204605F01AF82146D64803F0E5FF52
:104C30002046FFF7B1FF10BD10B504F03CFA10BDDF
:104C400070B58EB0064601206A4610701D20507067
:104C5000AC2090705024D4704625157101990098AD
:104C600007F0C7FC294620460CF0AAFEC6A107C9DA
:104C700004AB07C304A807F068FEC6A103C90891E6
:104C80000790002E02D007A807F0C3FC0024684656
:104C90004471047107268671C47104722546684602
:104CA00005710299019807F0E0FC6D1C052DF6DBFB
:104CB000684644730672447286723021C172642160
:104CC00001730399029807F01BFDB44C60680D90C6
:104CD0000DA807F06FFD1C340FCC09AD0FC5B0A1B6
:104CE00009A80BF04FF809A807F074FDAE490020A1
:104CF00007F080FD0EB070BD10B50446AB480068EB
:104D000005F0FFF99D48202C04D0082C04D0012C7C
:104D100008D003E0A64900E0A649816100F051FAFD
:104D2000002010BD0121C903F7E71CB504469348D4
:104D3000007C002812D0002080210C43694600909E
:104D40000C7002460321019006F0EEFD01AB6A46AD
:104D5000022106F039FE694648791CBD06F0BBFE0B
:104D6000684604710023012201A9102006F01BFFF0
:104D70000028F7D001231A466946112006F013FFD8
:104D80000028F7D06846047807F08EF820461CBD4E
:104D90007CB5054679480C46007C00280ED0684654
:104DA00005704170002002460321019006F0BCFD11
:104DB00001AB6A46022106F007FE7CBD06F08BFEC1
:104DC000684605704470012302226946102006F0EF
:104DD000EAFE0028F7D007F067F87CBDF0B5694D12
:104DE00091B075481C352860744868607448A860A4
:104DF000002628460CF074FD60490024487468467B
:104E0000047507F054F901F06CFD05A807F01DFCCE
:104E10006846007D002808D001263046FFF710FFC5
:104E20006846047505A807F018FC6649664807F04F
:104E3000EFFC52482E3007F096FD02F04DFA304656
:104E400015260227002817D003A807F0F8FC6846AB
:104E5000408A10388A2807D26846007C122803D876
:104E60006846C07B31284ED96846468201210174CC
:104E7000C173847346734FE00FA807F0C2FB10A8FC
:104E8000017808A8C07F0CF09BFD03A807F0FDF88F
:104E900006A9002007F0EFF92969069808604B4938
:104EA000079808604A49099A0A6029690A684949C5
:104EB0000A604949086008A8807D002810D108A828
:104EC000C07D00280CD168464687042108A80176D9
:104ED0002021C175082181753021417504754776FF
:104EE00008A8427E6846418F08A8007E6B4607C32B
:104EF00008A8C37D827D417D007DFFF7E4FB00288B
:104F0000EED011B0F0BD684646820421017407213D
:104F1000C17384733321417304734774418AFAB2B5
:104F2000007C6F4607C76846C37B827B417B007B62
:104F3000FFF7C9FB28690460244804602448046022
:104F4000286901682348016023480460D9E770B5E7
:104F500009F04DF901247D25ED00284604F0BCFD43
:104F6000641C052CF9DB70BDC1031C48491E41605F
:104F7000012181601A480160704700000420002070
:104F800064200020B4240020010203040506070861
:104F9000090A00008888888888880000501D02005F
:104FA0004A59442053740000102700009420002028
:104FB000FF030000FF0F0000914D01002B4D010089
:104FC000F94C01006C2000205F20002044230020C9
:104FD000802200208420002088200020000501403D
:104FE000000001409C499B480860C5E788B008F074
:104FF0005CF99A4801269949443006609848720441
:10500000C26000250E608660944924310D60934A89
:10501000102110321660C16002F02CFF914901206E
:1050200006F006FA03F0A0F88C490C204031086025
:105030008C49002350221431082006F049FB8A488D
:1050400006F063FB894806F068FB864A0A21643251
:10505000082006F095FB002404F094F884480190A1
:10506000844802906846847005F0B7FEC82008F0B6
:1050700097F8FFF7E6FC8048009069467F4803F008
:10508000F4FD1C2168460AF024FF0520400401902D
:10509000801002900095032168460173C581067453
:1050A000774806900595684604F04FFD00F0BFF87C
:1050B000744A0521012006F091FAFFF78FFE462081
:1050C000FFF752FF00F07DF802F0C5FE6E490520A3
:1050D0000870FFF724FD6D4C0020E67202F083F9A2
:1050E0006B480022F103006804F0D0FF06F099F845
:1050F000802069460195087100220321104602951F
:1051000006F012FC02AB01AA022106F05DFC694622
:10511000487A03280ED025740120E0731420E07132
:1051200002F0DAF85B4F207B00281AD0607B002861
:1051300002D017E02674EFE7012060730BF00EFB3E
:105140000BF00CFB0BF00AFB74DFE572002801D0BA
:1051500074DFE5720BF002FB0BF000FB0CF0FEF8C5
:1051600000E065733878002827D0FF206946087171
:1051700001A807F072FA08F098F8002008F060F82B
:105180000BF0ECFA0BF0EAFA43A20221002008F03F
:105190000AF900267D20C00004F09EFC761CF6B2C1
:1051A000022EF7D3684612DF68460078002804D044
:1051B000F0203ADFA02039DF2ADF06F06BFB3DDF6D
:1051C000B1E710B53148002281693548006804F024
:1051D0005DFF10BD11B53349A1B0487B0A7B0102C8
:1051E000114310A801802948817C10A881702E48A5
:1051F0003C2100680F9068460AF06BFE02240121F2
:10520000684600944171018121A80390684681821B
:105210000FAA069281833C2111A808920AF059FE38
:1052200000216846119404F03AFB22B010BD1749E2
:105230001E2020310880887801221043E12210408E
:10524000DF220C30104088700720C87010200871D1
:1052500092E600003546526E0006014000070050FD
:1052600000050050A02300201B4C0100394C010018
:10527000E3430100974B01000F6C0100B4240020B0
:10528000954B0100F5A501000C2200200420002010
:105290009820002062200020557064617465200011
:1052A000942000207A1D0200501D020010B5FF4915
:1052B000002209780F23002901D05A220021445CE2
:1052C000491CA218D2B29942F9DBC05C904201D1CC
:1052D000012010BD002010BD0021C173C27B435CC2
:1052E000491CD218C2730F29F8DBD0B2704770B5D1
:1052F0000D460446FFF7F0FFE0732A462146EC48CE
:1053000003F0D9FC70BD30B50546EA4885B0C07BD6
:105310000C46002825D0012802D0022821D105E022
:105320008AB22946E24803F0C6FC1AE01421684616
:105330000AF0CFFD5A206946087029466D46621E64
:10534000681C0AF067FD002004E0295D2A5C8918CA
:105350002955401CA042F8D3641CE1B2684607F00E
:10536000F1FE002005B030BD70B50D460446FFF7D4
:10537000B3FFE07329462046FFF7C5FF082805D094
:10538000002803D0CCA24721FEF7B4FF70BDF0B5D2
:10539000C84987B04978002902D1CB4A0121117050
:1053A000FFF784FF00256C460028009501950295C3
:1053B00003955CD009202070C548C44900680CF0F2
:1053C00007FC0BF085F8C34E3269116849024B0E99
:1053D00069464B7011880B0A69468B701278CA7047
:1053E000020CCA71020A0A72487204A905A80CF0DC
:1053F00051FA3769049E38687D217043C9000AF06C
:105400006AFD000C6946887238687D217043C900C6
:105410000AF061FD000A6946C87238687D21704350
:10542000C9000AF058FD69460873AB483C21006882
:105430000AF051FD020A69464A738873CD73002051
:10544000C97B225C401C8A186946CA730F28F7DBA7
:1054500010216846FFF757FF082805D0002803D021
:1054600095A26F21FEF746FF012007B0F0BD89200D
:10547000207021460020C97B225C401C8A182146EE
:10548000E2730F28F7DB10212046FFF73CFF0828C6
:1054900005D0002803D088A28021FEF72BFF002032
:1054A000E3E7F0B5834F064678788DB000282BD11E
:1054B0003046FFF7FBFE00256C46002805D07078CB
:1054C00004A906F0D8FE002821D0C3216846017047
:1054D000457002202554401C1028FBDB00206A4642
:1054E000D17B225C401C89186A46D1730F28F6DBF9
:1054F00010211046FFF707FF082805D0002803D029
:105500006DA2EE21FEF7F6FE00200DB0F0BD04986E
:10551000002813D071497078087068467049408E31
:10552000087008A86F49007C087008A86E49C07B05
:1055300008700120B87002F00DFC1EE02554401CDC
:105540001028FBDB432168460170FF2141700020D9
:105550006A46D17B225C401C89186A46D1730F28A9
:10556000F6DB10211046FFF7CEFE082805D00028F4
:1055700003D051A2CB21FEF7BDFE0120C5E7F0B557
:105580008DB00646FFF792FE00246D46002805D038
:10559000707804A906F06FFE002821D087216846A4
:1055A0000170447002202C54401C1028FBDB0020AA
:1055B0006A46D17B2A5C401C89186A46D1730F2841
:1055C000F6DB10211046FFF79EFE082806D00028C3
:1055D00004D0FF2138A25A31FEF78CFE002094E758
:1055E0006946401CCC731028FADB07270F70084669
:1055F0004C7071788170418EC17008A8017C68463A
:10560000017108A8C17B684641710498010C684685
:1056100081710498010A6846C1710499017244724B
:105620008472C472294905980CF0D2FA0AF050FF2E
:105630000146020C684602730A0A42738173002015
:105640006A46D17B2A5C401C89186A46D1730F28B0
:10565000F6DB10211046FFF756FE082806D000287A
:1056600004D0FF2114A21D31FEF744FE68460770E6
:105670000121417071788170418EC17008A8017C50
:105680006846017108A8C17B684641710F490698B8
:105690000CF09EFA0AF01CFF002852D07D21C900B0
:1056A0000AF019FC020C69468A711FE0762000207E
:1056B000B42400205C2000202E2E5C6576656E747C
:1056C000426C652E63000000062000200000C842E6
:1056D00044230020D02400208022002046200020E7
:1056E000522000205320002054200020020ACA71BA
:1056F0000872FE4800680AF02FFFFD490AF038FEE4
:105700000AF0E6FE020A69464A728872CC720020EC
:1057100003946A46D17B2A5C401C89186A46D1737F
:105720000F28F6DB10211046FFF7EDFD082806D004
:10573000002804D0FF21EF4A4531FEF7DBFD0120B0
:10574000E3E668468471C4710472D2E7F0B589B0AB
:105750000646FFF7ABFDA32100256C46002868D064
:1057600001203056002845DB7278042A42D8227482
:10577000B1786174F178A1743179E1740022052166
:1057800025750120735C012B02D0002B06D00AE0A6
:10579000237D074697403B43237504E0277D03465E
:1057A00093409F432775491C521C0C29EADB05993D
:1057B000049806F05AFF23216846017045700220C4
:1057C0002554401C1028FBDB00206A46D17B225C5C
:1057D000401C89186A46D1730F28F6DB1021104649
:1057E000FFF791FD082821D000281FD0FF21C14AD2
:1057F0009A3119E02170657002202554401C102850
:10580000FBDB0020E17B225C401C8A18E2730F283E
:10581000F8DB10212046FFF776FD082806D0002887
:1058200004D0FF21B34AAE31FEF764FD012009B078
:10583000F0BD2554401C1028FBDB21700020E17BCB
:10584000225C401C89182246E1730F28F7DB1021E7
:105850001046FFF758FD082806D0002804D0FF2185
:10586000A44AC431FEF746FD0020E0E770B586B0DB
:105870000546FFF71BFD00266C46002832D06978EC
:105880002174A9786174E978A1742979E17469793E
:105890006175A97921750599049806F031FF0020FA
:1058A0002654401C1028FBDB252168460170C67376
:1058B00000206A46D17B225C401C89186A46D1735D
:1058C0000F28F6DB10211046FFF71DFD082806D033
:1058D000002804D0FF21874AE931FEF70BFD0120A3
:1058E00006B070BD2654401C1028FBDBA52121709A
:1058F000E6730020E17B225C401C89182246E1739C
:105900000F28F7DB10211046FFF7FDFC082806D012
:10591000002804D0FF21774AFD31FEF7EBFC002080
:10592000DEE71FB5FFF7C2FC00246946002843D01C
:105930000120714B4204DA60704A10707048447163
:105940000470047200200C54401C1028FBDB12224F
:105950000A70CC730020CA7B0B5C401CD2180B462B
:10596000CA730F28F7DB10211846FFF7CCFC082874
:1059700006D0002804D091215E4A8900FEF7BAFCC7
:1059800060483B21008876DF082805D0002803D036
:10599000584A5D49FEF7AEFC74DF5C480470002095
:1059A000FFF74EF9002007F04BFCFEF7DCFC06F099
:1059B0004AFB012004B010BD0C54401C1028FBDB36
:1059C00092220A70CC730020CA7B0B5C401CD21858
:1059D0000B46CA730F28F7DB10211846FFF793FC1C
:1059E000082806D0002804D09921424A8900FEF7F1
:1059F00081FC0020DEE71FB5FFF758FC00216A4656
:105A0000002826D000201154401C1028FBDB38232E
:105A100013703B48D1734079002817D05170002093
:105A2000D17B135C401CC918D1730F28F8DB1021FF
:105A30001046FFF768FC082806D0002804D0324939
:105A40002C4A3E31FEF756FC0120B3E7012050708E
:105A5000E5E71154401C1028FBDBB8231370D17309
:105A60000020D17B135C401CC918D1730F28F8DBD0
:105A700010211046FFF747FC082806D0002804D064
:105A800021491C4A5231FEF735FC002092E7F0B55F
:105A900085B0FFF70BFC0025002859D018480126D7
:105AA000017A0624714001728472194A19481A4F0A
:105AB000002946D00521117006703C7001200BF0C2
:105AC0005DFC0F484672FEF737FC3C70009501956F
:105AD00002954921684603950170C5730020694607
:105AE000CA7B0B5CD2180B46CA7317E080220020D9
:105AF00000007042B8560100000500501020002040
:105B00005C2000201A200020490200000F20002005
:105B10000B2000200D2000200C220020401C0F280C
:105B2000DEDB10211846FFF7EEFB082806D0002820
:105B300004D05921FD4AC900FEF7DCFB012005B065
:105B4000F0BD147006703C7000200BF017FCBAE733
:105B5000009501950295C921684603950170C573AA
:105B600000206946CA7B0B5C401CD2180B46CA73E6
:105B70000F28F7DB10211846FFF7C5FB082805D0D2
:105B8000002803D0E94AEA49FEF7B4FB0020D6E733
:105B90001FB50446FFF78AFB0022694600282AD079
:105BA0006378E448002B02D0012B03D003E00123EB
:105BB000437100E0427100200A54401C1028FBDBB6
:105BC00037230B70CA730020CA7B0B5C401CD218B1
:105BD0000B46CA730F28F7DB10211846FFF793FB1B
:105BE000082806D0002804D0D149D04A4C31FEF70D
:105BF00081FB0120DEE60A54401C1028FBDBB723A2
:105C00000B70CA730020CA7B0B5C401CD2180B4679
:105C1000CA730F28F7DB10211846FFF774FB08281A
:105C200006D0002804D0C249C04A6031FEF762FBAA
:105C30000020BFE6F0B585B000240646009401942C
:105C400002940394FFF732FB6D4600282DD0B94F24
:105C50007078F870B278717912068918F278337911
:105C600012041B02D2188918396106F0C3FD3C7179
:105C70000B2168460170C47300206A46D17B2A5C00
:105C8000401C89186A46D1730F28F6DB1021104694
:105C9000FFF739FB082806D0002804D0A449A34AFE
:105CA0008031FEF727FB012049E72C54401C1028C7
:105CB000FBDB8B212970EC730020E97B2A5C401C04
:105CC00089182A46E9730F28F7DB10211046FFF7E1
:105CD0001AFB082806D0002804D09549934A94312D
:105CE000FEF708FB00202AE71FB50446FFF7DEFA9F
:105CF00000226946002805D063788E48002B21D009
:105D0000012B21D000200A54401C1028FBDB8F23DC
:105D10000B70CA730020CA7B0B5C401CD2180B4668
:105D2000CA730F28F7DB10211846FFF7ECFA082892
:105D300006D0002804D07E497C4AD131FEF7DAFA39
:105D4000002037E6027001E00123037000200A54AE
:105D5000401C1028FBDB0F230B70CA730020CA7B8A
:105D60000B5C401CD2180B46CA730F28F7DB1021BE
:105D70001846FFF7C8FA082806D0002804D0E52105
:105D80006A4A8900FEF7B6FA012013E61FB5FFF74D
:105D90008DFA00216A46002828D000201154401CAA
:105DA0001028FBDB4F201070624813460078002853
:105DB0001AD001205870D1730020D97B135C401C8D
:105DC000C9181346D1730F28F7DB10211046FFF7CF
:105DD0009AFA082806D0002804D0F321534A8900F3
:105DE000FEF788FA0120E5E55170E4E71154401C04
:105DF0001028FBDBCF231370D1730020D17B135C01
:105E0000401CC918D1730F28F8DB10211046FFF78A
:105E10007AFA082806D0002804D01F21434A4901F5
:105E2000FEF768FA0020C5E57FB5002400940194D0
:105E300002940394FFF73AFA6D4600282DD03D49AD
:105E4000103108460D3806F0E3FC4B206946087017
:105E50003848C2784A700069020E8A70020CCA7013
:105E6000020A0A714871CC7300206A46D17B2A5C11
:105E7000401C89186A46D1730F28F6DB10211046A2
:105E8000FFF741FA082805D0002803D0274A2A49FD
:105E9000FEF730FA012004B070BD2C54401C0F28CE
:105EA000FBDBCB212970EC730020E97B2A5C401CD2
:105EB00089182A46E9730F28F7DB10211046FFF7EF
:105EC00022FA082806D0002804D01B49174A1431AA
:105ED000FEF710FA0020DEE730B587B0FFF7E6F9ED
:105EE00000256C46002839D000202554401C10287D
:105EF000FBDB04A806F0C9F86846017C4170417CD0
:105F00008170817CC170C17C0171417D4171017DD5
:105F1000817126210170C57300206A46D17B225C05
:105F2000401C89186A46D1730F2807E0B856010053
:105F3000D90200005C2000201E040000EDDB1021CF
:105F40001046FFF7E0F9082805D0002803D0FE4AE4
:105F5000FE49FEF7CFF9012007B030BD2554401CA3
:105F60001028FBDBA6212170E5730020E17B225C79
:105F7000401C89182246E1730F28F7DB10211046D8
:105F8000FFF7C1F9082806D0002804D0EF49EE4AEF
:105F90001431FEF7AFF90020DEE730B589B00546D1
:105FA000FFF784F9A42200216C46002865D0002068
:105FB0002154401C1028FBDB0120285600283CDB24
:105FC0006878052839D20020E17B225C401C8918C2
:105FD0002246E1730F28F7DB24211170687804A9A9
:105FE00006F050FB6846017C4170417C8170817CE9
:105FF000C170C17C0171017D05200122431F0D4646
:10600000DD40EB0700D02254401C0C28F6DB0020BA
:106010006A46D17B225C401C89186A46D1730F28DE
:10602000F6DB10211046FFF76EF9082822D0002871
:1060300020D0C649C44A53311AE000202154401CE4
:106040001028FBDB227061700020E17B225C401C89
:1060500089182246E1730F28F7DB10211046FFF75D
:1060600052F9082806D0002804D0B849B64A683149
:10607000FEF740F9012009B030BD2154401C102822
:10608000FBDB22700020E17B225C401C8918224649
:10609000E1730F28F7DB10211046FFF734F90828C9
:1060A00006D0002804D0A949A74A7D31FEF722F97D
:1060B0000020E0E770B58EB00646FFF7F7F8002540
:1060C0006C46002836D0707804A906F0D4F8002178
:1060D0006554491C1029FBDB717868464170418E7C
:1060E000817008A8017C6846C17008A8C17B684619
:1060F000017108A801786846017308210170C57311
:1061000000206A46D17B225C401C89186A46D17304
:106110000F28F6DB10211046FFF7F5F8082806D007
:10612000002804D09F21884AC900FEF7E3F8012027
:106130000EB070BD2554401C1028FBDB8821217057
:10614000E5730020E17B225C401C89182246E17344
:106150000F28F7DB10211046FFF7D5F8082806D0E6
:10616000002804D07949784AB631FEF7C3F80020F8
:10617000DEE7F0B587B00546FFF798F882270026DE
:106180006C4600284CD0697928790BF019FC00285E
:1061900016D06846077001202654401C0F28FBDBF0
:1061A0006846C7731021FFF7AEF8082806D000280C
:1061B00004D06649644AF031FEF79CF807B0F0BDA0
:1061C000697868460174A9784174E97881742A79FC
:1061D000C2746979017510460BF0F2FB05990498B9
:1061E00006F007FA00202654401C1028FBDB022092
:1061F0006946087000206A46D17B225C401C8918E1
:106200006A46D1730F28F6DB10211046FFF77BF8A2
:106210000828D3D00028D1D04C494B4AE231CBE7F3
:10622000277001202654401C0F28FBDB2046E77313
:106230001021FFF768F80828C0D00028BED0AB2195
:10624000414AC900B8E730B587B0FFF72FF80025FD
:106250006C4600282FD004A806F0D3F9002165541D
:10626000491C1029FBDB422168460170017C41700A
:10627000417C8170817CC170C17C0171017D417163
:10628000A01D06F0CDF900216A46D07B625C491C56
:1062900080186A46D0730F29F6DB10211046FFF7ED
:1062A00032F8082805D0002803D0274A2849FEF7ED
:1062B00021F8012050E6C2202070214601202554FB
:1062C000401C0F28FBDB8220C87310212046FFF7FB
:1062D0001AF8082806D0002804D01D491A4A11319E
:1062E000FEF708F8002037E6F0B58DB00546FEF75A
:1062F000DDFF00286CD007AC601D471C08AE09907C
:1063000009980290E31CA21C611C0197009607A843
:10631000FEF726FA0028F3D06C786846C480AE7881
:106320000671EF78C770297981700A916979417097
:106330000991A97901700B91ED794571002C25D057
:10634000002E23D0C07F05E0B8560100570400009E
:106350007E050000B84207D16846408CA04203D1B8
:1063600008A80078B04206D0FE490120C8710899FB
:10637000079806F05CFA009601943B4602950A9A4B
:1063800009990B98FEF79FF90028F4D000200546E4
:1063900003A90D54401C1028FBDB0124684604733C
:1063A000C476102103A8FEF7AEFF082805D0002808
:1063B00003D0ED4AED49FDF79DFFED480470FDF770
:1063C000BBFFEC48EC490570062008700DB0F0BD2D
:1063D0008122684602730120002103AB1954401C3E
:1063E0000F28FBDB6846C27610211846FEF78BFFAC
:1063F0000828EBD00028E9D0DC49DB4A1531FDF74D
:1064000079FFE3E730B589B0FEF750FF002503AC14
:1064100000283DD008A8013008AA411C0092831E24
:106420000290C21E019107A8411CFEF799F9412074
:106430006946087301202554401C1028FBDB0846E0
:10644000498C417308A8017868468173C17FC17384
:10645000817F0174417F4174017F817408A8417874
:106460006846C17400206A46D17E225C401C8918AF
:106470006A46D1760F28F6DB102103A8FEF743FF0A
:10648000082824D0002822D0B849B74A3A311CE065
:10649000C1206946087301202554401C1028FBDBED
:1064A00000206A46D17E225C401C89186A46D1765B
:1064B0000F28F6DB10212046FEF725FF082806D01E
:1064C000002804D0A949A84A4C31FDF713FFD2E5B2
:1064D000F0B587B0FEF7EAFE00246D46002869D0CB
:1064E00000202C54401C1028FBDBA548A349006861
:1064F0000BF06EFB09F0ECFF48226946A14E0A70D2
:10650000326911680B0C69464B7011880B0A694699
:106510008B701278CA70020CCA71020A0A72487231
:1065200004A905A80BF0B6F93769049E38687043D2
:106530003BD0954909F0CFFC000C69468872386859
:106540009149704309F0C7FC000A6946C87238686F
:106550008D49704309F0BFFC694608738B490020E0
:106560000A68002A03D03C21104609F0B4FC020A54
:1065700069464A738873CC7300206A46D17B2A5CD3
:10658000401C89186A46D1730F28F6DB102110468B
:10659000FEF7B9FE082806D0002804D07349724AD5
:1065A0008031FDF7A7FE012008E668468472C472B8
:1065B0000473D3E72C54401C1028FBDBC82129703E
:1065C000EC730020E97B2A5C401C89182A46E97399
:1065D0000F28F7DB10211046FEF795FE082806D09D
:1065E000002804D06149604A9431FDF783FE002001
:1065F000E4E51FB5FEF75AFE00216C460028009125
:1066000001910291039123D01320207000F064FEC9
:106610005F48006800F01CFE6946487000206A462A
:10662000D17B225C401C89186A46D1730F28F6DBA7
:1066300010211046FEF767FE082806D0002804D077
:106640004A49494AEF31FDF755FE012004B010BD1B
:1066500093222270E1730020E17B225C401C8918A8
:106660002246E1730F28F7DB10211046FEF74BFEA0
:10667000082805D0002803D03B4A4649FDF73AFEDA
:106680000020E3E71FB5FEF711FE0022694600284F
:1066900000920192029203922DD0222008703E486F
:1066A000426AC023120A1A434A70426A0B468A7031
:1066B000026A120ECA70026A120C0A71026A120A87
:1066C0004A71006A88710020DA7B0B5C401CD2188A
:1066D0000B46CA730F28F7DB10211846FEF713FE8E
:1066E000082806D0002804D02A491F4A1E31FDF789
:1066F00001FE0120AAE7A2230B70CA730020CA7B07
:106700000B5C401CD2180B46CA730F28F7DB102114
:106710001846FEF7F8FD082806D0002804D01D49C9
:10672000114A2F31FDF7E6FD00208FE71FB5FEF778
:10673000BDFD00216C46002800910191029103915A
:106740003DD0272020700E221449601C09F062FB06
:1067500000216A46D07B625C491C80186A46D0736F
:106760000F291DE05C200020B8560100BD05000087
:106770000D2000200B2000200C2200200000C84229
:1067800044230020D0240020102700008022002075
:1067900058200020BD0600004000001032200020DC
:1067A000D7DB10211046FEF7AEFD082805D00028E3
:1067B00003D0FB4AFB49FDF79DFD012046E7A722D8
:1067C0002270E1730020E17B225C401C8918224684
:1067D000E1730F28F7DB10211046FEF794FD08281F
:1067E00006D0002804D0E321ED4AC900FDF782FD60
:1067F00000202BE7F0B585B00446FEF757FD0025D5
:106800006E4600284ED0607801211022E64F002805
:106810000AD001280CD0022821D003281FD0042838
:1068200013D0052819D01AE0E04802E0A27004E075
:10683000DF480170A0781028F8D8A278E11CDA4867
:1068400009F0E8FAA0783D5409E0DA48DA49057021
:1068500006200870FDF787FD01E0D84805804D202F
:106860006946087001203554401C1028FBDBCD73AD
:1068700000206A46D17B325C401C89186A46D1737D
:106880000F28F6DB10211046FEF73DFD082806D044
:10689000002804D0C349C24A7F31FDF72BFD0120F7
:1068A00005B0F0BDCD21009501950295039531709D
:1068B000F5730020F17B325C401C89183246F1737D
:1068C0000F28F7DB10211046FEF71DFD082806D023
:1068D000002804D0B349B24A9031FDF70BFD0020E7
:1068E000DEE70020B04902462031C300C318401C37
:1068F000C0B2CA540528F8D3704730B501780024D7
:1069000087B0272971D017DC0B000AF071FD2738FA
:106910005C6538A4A73872756B6F84383838913845
:10692000389BAB38FDFCFB3838383838383838E21B
:1069300038AE787B7E81380046296FD02BDC3D292C
:106940006DD01DDC34296BD013DC2E2969D033299E
:1069500015D105460094019402940394FEF7A6FC19
:1069600000286ED0332069460870681C05F0DDFFF2
:1069700010E1372962D0382901D1FFF73CF899E4BA
:106980003F296ED0412921D0422928D04329F6D170
:10699000FEF787FD8EE44F294DD009DC47390B0007
:1069A0000AF026FD074317560540056C050081E4F3
:1069B0006A2975D0972967D0A92946D0FF29DED149
:1069C00000F016FC76E4FFF78FFC73E4FFF71AFD86
:1069D00070E4FFF77DFD6DE4FFF7CBFB6AE4FFF7A2
:1069E00032FC67E4FEF7D3FC64E441E000F035F9E3
:1069F00060E4FEF7C4FD5DE4FFF75CFB5AE4FEF7DC
:106A0000A5FE57E4FFF7C9FA54E4FEF72FFF51E45F
:106A1000FFF762FA4EE4FFF70DF94BE431E055E081
:106A200043E028E0FFF700FA44E400F0D7F941E43E
:106A3000FFF75AF93EE4FFF7A9F93BE4FFF7A8F89E
:106A400038E430E0FEF76DFF34E400F045F931E45E
:106A5000FFF71DF82EE400F072F92BE400F032FA93
:106A600028E460E0FFF7C5FD24E4FFF70BFE21E416
:106A7000FFF75CFE1EE400F06EFA1BE4FFF7BAFEBF
:106A800018E400F0CDFA15E4009401940294039404
:106A9000FEF70CFC002804D005F0D5FA97203CE066
:106AA0003EE0A72039E0D32037E00094019402941F
:106AB0000394FEF7FBFB002806D0342069460870DB
:106AC000481C05F03AFF65E0D42026E000F0EDFA1E
:106AD00009E405460094019402940394FEF7E6FB52
:106AE000002819D02020694608700622691C344805
:106AF00009F090F9FDF720FC2F490A200870314871
:106B0000047002E064E026E010E02F490D200870D8
:106B1000012007F0E0FE32E7A0206946087039E066
:106B200000F0F7FA2BE700F096F928E700940194BB
:106B300002940394FEF7BAFB00280AD004A805F0DB
:106B40000BFF00A80A2204A9013009F063F91520FF
:106B5000E3E7C5201BE005460094019402940394EA
:106B6000FEF7A4FB002811D00A22691C04A809F032
:106B700051F904A805F0E9FE16206946087013488B
:106B80000178002906D10121017003E0C620694681
:106B90000870C87310216846FEF7B5FBEFE60000E9
:106BA000B85601000707000010250020042000202F
:106BB000072000200A2000200C220020182000209E
:106BC0004C200020452000200B20002044220020E3
:106BD00000F0DAFAD3E630B585B0047869460C7473
:106BE0000146082202A809F015F9E0002418FE4D1C
:106BF00009226119684609F00DF900202855FB4962
:106C00000120C8736846FFF778FE05B030BD7CB53B
:106C10000D4601F023FCF54C0922607BC1004018B1
:106C2000F1494018294609F0F5F8607B694608707B
:106C3000294600A807220931013009F0EBF8EC4A97
:106C40000821684604F0B0FD607B401CC0B2607350
:106C5000042801D9002060737CBD1FB5E5490024DC
:106C60000C70FEF723FB69460028009401940294FF
:106C7000039418D00A2008700020CA7B0B5C401CCB
:106C8000D2180B46CA730F28F7DB10211846FEF7FF
:106C90003AFB082805D0002803D0D7A29721FDF79A
:106CA00029FB0120D2E48A2008700020CA7B0B5CFB
:106CB000401CD2180B46CA730F28F7DB1021184668
:106CC000FEF721FB082805D0002803D0CAA2A8217E
:106CD000FDF710FB0020B9E41FB50446FEF7E6FA05
:106CE00000282AD061780120002902D0012902D091
:106CF00003E0C54900E0C549087000200246694626
:106D00000A54401C1028FBDBA9230B70CA73002017
:106D1000CA7B0B5C401CD2180B46CA730F28F7DBEA
:106D200010211846FEF7EFFA082806D0002804D0F4
:106D30001121B1A24901FDF7DDFA012086E47FB5FA
:106D40000646FEF7B3FA00246D46002804D03078DA
:106D500005F01AFB002820D0009401940294082129
:106D6000684603940170C47300206A46D17B2A5C94
:106D7000401C89186A46D1730F28F6DB1021104693
:106D8000FEF7C1FA082805D0002803D09AA2A0492E
:106D9000FDF7B0FA002004B070BD00940194029495
:106DA0000421684603940170C47300206A46D17BB5
:106DB0002A5C401C89186A46D1730F28F6DB102123
:106DC0001046FEF7A0FA082806D0002804D0904903
:106DD00089A21239FDF78EFA0120DCE710B58AB0DE
:106DE000FEF764FA002834D00020014603AC215499
:106DF000401C1028FBDB47206946087308A80130B7
:106E000008AA411C0092831E0290C21E019107A88D
:106E1000411CFDF7A5FC0899079805F008FD002026
:106E20006A46D17E225C401C89186A46D1760F28BA
:106E3000F6DB102103A8FEF766FA082806D0002822
:106E400004D0FF216CA28900FDF754FA67490120A4
:106E500088710AB010BD7FB56E48046800F03CFA36
:106E60006D4901200870FDF767FA0025009501952E
:106E700002953F216846039501706421204609F080
:106E800034F802466846427008460A2109F02DF897
:106E90000146684681700A21204609F026F86846B6
:106EA000C170C57300206946CA7B0B5C401CD218B8
:106EB0000B46CA730F28F7DB10211846FEF723FA9A
:106EC000012068E77FB50646FEF7F0F900256C461D
:106ED000002822D0701C05F09CFB009501950295BE
:106EE000052069460395087000206A46D17B225C24
:106EF000401C89186A46D1730F28F6DB1021104612
:106F0000FEF701FA082806D0002804D00D213AA285
:106F1000C901FDF7EFF901203DE7852100950195B5
:106F2000029503952170E5730020E17B225C401CF3
:106F300089182246E1730F28F7DB10211046FEF76F
:106F4000E2F9082805D0002803D02BA23349FDF729
:106F5000D1F900201FE71FB5FEF7A8F90022694606
:106F6000002822D000200A54401C1028FBDB2E23CE
:106F70000B70CA730020CA7B0B5C401CD2180B46F6
:106F8000CA730F28F7DB10211846FEF7BCF9082852
:106F900006D0002804D0214917A2A331FDF7AAF991
:106FA000F0203ADF2ADF012008E4AE2300920192AC
:106FB000029203920B70CA730020CA7B0B5C401CC8
:106FC000D2180B46CA730F28F7DB10211846FEF7BC
:106FD0009AF9082806D0002804D0E92106A2C900A1
:106FE000FDF788F9002004E4302500205C20002013
:106FF000D76B0100062000202E2E5C6576656E742E
:10700000426C652E630000004220002043200020D7
:107010000303000058200020A82000209106000053
:107020007FB5FEF743F900256C46002800950195D1
:10703000029503951ED046212170601C05F058F979
:107040006846C57300216A46D07B625C491C801883
:107050006A46D0730F29F6DB10211046FEF753F96C
:10706000082805D0002803D0744A7549FDF742F975
:10707000012090E6C6212170E5730020E17B225CAF
:10708000401C89182246E1730F28F7DB10211046B7
:10709000FEF739F9082806D0002804D06849674A65
:1070A0001031FDF727F9002075E610B5044686B0CB
:1070B000002000900190029003902046FEF7F6F821
:1070C00000281CD0601C05F085FB3D21684601703E
:1070D0001021FEF718F901200146684610310174AD
:1070E000601C08F075FE82B2611C04A87CDF0028D9
:1070F0000CD05349514AE831FDF7FCF806E0BD20B9
:107100006946087010216846FEF7FDF8012006B0B8
:1071100010BD30B5044687B0002002900390049063
:1071200005902046FEF7C2F8EA25002829D06846D7
:1071300005F084FA684600786178884221D1684673
:107140004078A17888421CD168468078E1788842EE
:1071500017D16846C0782179884212D168460079F3
:10716000617988420DD168464079A179884208D179
:107170006A2069460872102102A8FEF7C4F80120AF
:1071800008E468460572F6E710B586B0002401945D
:10719000029403940494FEF789F800281FD0172066
:1071A00069460871C8741C2202230321104600940A
:1071B00005F0A2FC234800780028A8D001AC0822E2
:1071C0002149601C08F026FE102101A8FEF7CCF82A
:1071D0001D4908220831601C08F01CFE03E0C52090
:1071E00069460871C874102101A8FEF78CF88EE773
:1071F0007FB5002604460096019602960396FEF798
:1072000055F8002819D0FF206946087060780F4DA6
:10721000012802D0002803D003E00120A87300E079
:10722000AE73A078FDF714FAE872E078FDF710FA73
:10723000287310216846FEF766F8ACE5F86F010088
:10724000B307000076200020FC2D00205C200020E9
:1072500030B53F4A0146137800203E4A002B0BD040
:10726000032010703C480069400AC007C00F01D0DD
:10727000032030BD012030BDFF24FF255F34913550
:10728000A1420AD3FF207830814201D2012004E0DC
:10729000A94201D2022000E003201378032B04D07E
:1072A000022B08D0012B0ED014E0FF238C3399421F
:1072B00010D903200EE0FF23733399420AD9A94263
:1072C00008D2022006E0A14204D9FF237D3399426F
:1072D00000D20120107030BDF8B5204801250024EF
:1072E0000078AD02274600282CD01B490120C86039
:1072F00002210022084605F04DFB002605F06CFB3C
:1073000080B2854200D90546844200D204463F1827
:10731000761C0A2EF2DB781B001BC1084B22D20020
:1073200051430F48890A0C4B012201609A60FF22E9
:107330005F32914205D8094900220A70FF21553178
:107340000160F8BDFF20064955300860F8BD704760
:107350001220002070200020000500504B2000204B
:10736000582000207CB5FE48FF4C0178FD4D206878
:1073700000290AD0FD4E012910D009F0EDF831683E
:107380000AF0FCFB20D864207CBD29690A6882428F
:10739000F9D264214A430146104612E0694601A829
:1073A0000AF078FA28690068002805D00099484357
:1073B0007D21C90008F08FFD21688842E3D2642254
:1073C000504308F088FD0CE0206809F0C5F8044639
:1073D000E74930680AF0FCFB214608F0C9FF09F0D4
:1073E00077F8C0B27CBD70B50646FFF7BBFF01243D
:1073F000E04D002E11D0642812D3287800280FD138
:10740000DD48DF490470DD48047006200870FCF791
:1074100093FFDC490E20087001E0642800D32C7033
:1074200070BDF0B5D8480024007887B0002867D038
:10743000D6480078002863D0CA4FD5483D69C06956
:10744000296881425CD000206E463454401C1028CC
:10745000FBDBC648C64900680AF0BAFB09F038F8F9
:10746000092269460A70296849024A0E69464A702B
:1074700029880A0A69468A702A78CA70C4492A6823
:10748000CA61020C6946CA71020A0A72487204A9EA
:1074900005A80AF0FFF93F69049D38687D2168431B
:1074A000C90008F018FD000C6946887238687D2113
:1074B0006843C90008F00FFD000A6946C8723868C1
:1074C0007D216843C90008F006FD69460873B1488C
:1074D0003C21006808F0FFFC020A69464A73887381
:1074E000CC7300206A46D17B325C401C89186A4606
:1074F000D1730F28F6DB10226946A74801F0DBFBA9
:10750000A6480078002804D096480069046097488F
:10751000046007B0F0BD10B5A048A1490078097813
:10752000084301D10AF0C4F900219E4A084604F03C
:107530003BF910BD10B5002400E0641C9A4808F027
:1075400047FCA042F9D810BDF3B5984895B0017832
:1075500010A8077D407D119010A8807D109010A884
:10756000408B0F9010A8467E057EC47D00297CD0FC
:107570000DA805F064F908A8017D6846017708A800
:10758000417D6846417708A8817D68468177418FB3
:10759000418408A8417E4170017E0170C17D68462A
:1075A000C1778348834A01781278914301D0002142
:1075B00001706C4812A90069006800906B4800686F
:1075C000019013A80AF066F966480069006800286F
:1075D00007D0129948437D21C90008F07CFC08F0CF
:1075E000BBFF02906B480068002802D03C2108F0E5
:1075F00072FC0390FFF7B6FE69460874684604F013
:10760000A7FD6A4809AA037808990798FDF728F9A1
:1076100009AA0899079804F025FF64480078002813
:1076200052D0504900200969086050490860594902
:1076300008605E4908705649486108614D49087004
:1076400069460F77119A4A77109A8A770F9A4A8477
:1076500008A94E700D706946CC77424909690968DE
:10766000009101900DA90EA800E02FE00AF012F998
:107670003C480D9900690068484335D000200290CD
:1076800044480068002802D03C2108F024FC039004
:10769000FFF768FE69460874684604F059FD6946BC
:1076A000488C08A90871087848716946C87F08A9FC
:1076B00088710020C87108720A900B900C9009AA7A
:1076C0000899079804F0CEFE17B0F0BD684607771A
:1076D00011994177109981770F99418408A84670D4
:1076E00005706846C4775CE77D21C90008F0F3FBAC
:1076F00008F032FFC3E773B584B00020009001901A
:107700000290694603908E7C304604F0B9FB6946CE
:107710004D7C8400284604F0B3FB0F2108F0DBFB0E
:1077200024186946C88A0870087D4870C87C88702B
:10773000304604F0A5FB8600284604F0A1FB0F218B
:1077400008F0C9FB30186946C870FF200871641C36
:107750006D46E4B208221849681D08F05BFB2DE075
:107760005F200020D02400206C2000204423002033
:107770000000C84260200020442000200D2000208E
:107780000C2200200B200020062000208422002054
:107790007420002080220020B4240020102000202B
:1077A0004A200020237401001025002063200020BF
:1077B00065200020642000206C2300209920694669
:1077C0008873204604F022FE641EE4B20822F849C1
:1077D000681D08F01FFB6946204604F017FE06B03E
:1077E00070BD10B5F34C6079002804D0A06A02F097
:1077F00088FC0020607110BD30B5EF4A0123840081
:10780000A418236000248D00AA181460EB4AD060ED
:107810005161EB48506204201060EA498B600B60B4
:10782000E9498C60E9494860E94A1168FF231B0473
:10783000994303239B0519431160E649086030BD55
:10784000F3B5E54983B00878002806D0401E00064D
:10785000000E087001D100F00FFED64C4B21E089DC
:10786000C900401C80B20025E081884202D9E58130
:10787000FFF76DFDD94E0127307800280BD0D8488E
:10788000A7710570E07800280DD119211820FFF7A5
:10789000B3FFE77007E0A079E178084203D005F074
:1078A00061FCE570A5716846049A039908F0B2FA84
:1078B0000120FFF798FDCB480078002802D0C94985
:1078C000401E087009F01CFCC748217A0078084265
:1078D0000ED0C64825720770012009F04FFDC1483F
:1078E0000078002809D101990098FFF704FF04E00F
:1078F000084302D1BD4827720570BD48BD4A0178D2
:10790000002907D1BC49BD4B09781B78194313786E
:10791000194319D0E179491CC9B2E1713C2902D857
:107920003178002911D0E5710570B348B44905706C
:10793000B2480570012015704004C860B148B249D2
:1079400007701E20088000E0E5719A48017900293F
:107950000AD03078002807D1491E96480906090E3A
:10796000017101D1FFF73DFFA848007800280CD035
:107970003178002909D1401EA4490006000E087084
:1079800003D1A3480570FCF7EEFCA248007800285C
:1079900060D1A1480078002803D0A0480168491CA4
:1079A00001609F480078002803D001990098FFF7F4
:1079B000CBFD684604783178204608431BD18F48B8
:1079C0008A4A007812781043084308D195480199F3
:1079D00000690268009804F0BAFE88490870864879
:1079E00031780078084306D102220199009804F00A
:1079F00053FE814908707A498B480A78062A0CD1CF
:107A000002780623521CD2B202708048052A037005
:107A100004D386480D70077074480570592C03D143
:107A200001990098FFF790FD68468078232811D1CE
:107A30006846407859280DD1592C0BD179480069F6
:107A40000560764805607A4805605A4805614561D9
:107A50007848057005B0F0BDF0B595B001200990EB
:107A600075480168491C0160FDF7BCFA08A801309F
:107A700008AA411C0092831E0290C21E019107A811
:107A8000411CFCF76DFE63486C4900780978084397
:107A90007ED16B480078002805D06A4806786A488D
:107AA00000780A9004E020200990674802260670BA
:107AB000404C4A4FA078002500280AD01022634984
:107AC000634801F0F8F83878002801D105F04AFB46
:107AD000A57060480078002850D04949102088607F
:107AE000607AB04227D103950495059512A80695B2
:107AF00004F032FF03A80A2212A9013008F08AF923
:107B0000152069460873002003A96B46DA7E0B5CDA
:107B1000401CD2186B46DA760F28F6DB05F022FB04
:107B20001C22032302211046009504F0E5FF1021DA
:107B300003A805F007FB607A4349401CC0B260729D
:107B40000978891981420ED805F00CFB3878002895
:107B500003D019211820FFF74FFE3E481021057071
:107B60002748C1606572A078002807D010223749E5
:107B7000374801F0A0F805F0F5FAA5706846407F97
:107B8000099908F0A8F9002905D16846007F00E0AE
:107B9000CBE0002803D0387800285DD068E0387842
:107BA000002865D10120164A10219160E07262E040
:107BB00064230020742000200007005000250040AE
:107BC00000F0EB00002000400021004000230040B6
:107BD00000E400E000E100E0D320002012200020BB
:107BE0000B20002066200020BC2200206420002002
:107BF00004200020052000204220002043200020F7
:107C00000005005049200020182000200C220020F0
:107C10000A20002010200020542200208022002072
:107C200063200020D0240020472000200D200020C9
:107C30004423002060200020E02100204A20002072
:107C40006A2000206720002068200020FC2D0020F2
:107C5000B4240020442200200A98A17A8019884286
:107C600006D8E57205F07EFA9D49A5721020C8601D
:107C7000E07A002859D0A07AB04253D11C220323C5
:107C800002211046009504F037FF09A9002004F0F6
:107C9000F2FA039504950595072069460695087341
:107CA00010A9C8886946487310A90879694688737D
:107CB00010A9C8786946C87309988A4E000C0874E0
:107CC0000998000A48740998887431460A9809F09E
:107CD0007FFF08F0FDFB020C6946CA74020A0A75B0
:107CE000487531460B9809F073FF08F0F1FB002846
:107CF00022D07D21C90008F0EEF8020C69468A7591
:107D0000020ACA750876002003A96B46DA7E0B5C6E
:107D1000401CD2186B46DA760F28F6DB102103A838
:107D200005F010FAA07A401CA0726F4A082107A83B
:107D300003F03AFD15B0F0BD68468575C57505764A
:107D4000E1E710B5694900200873694A014603F06C
:107D50002BFD10BDF0B589B0002006466D462E54AF
:107D6000401C1028FBDB43202870F0205F4C68701B
:107D700008A9207808705F480A4604A9007804F032
:107D80002EFC08A909782778B94201D100282FD004
:107D90000E21A81C08F09BF85748017868468170AE
:107DA000564801786846C1705548017868460171A7
:107DB0004771544F3878002810D000206A46D17B94
:107DC0002A5C401C89186A46D1730F28F6DB102103
:107DD0001046FDF798FA2078401C207020785F2824
:107DE00004D949483E7006702670667009B0F0BD2F
:107DF0004148017868468170404801786846C17002
:107E00003F480178684601714771017D8171417D6C
:107E1000C171817D0172C17D4172017E8172417E9D
:107E2000C172817E0173C17E4173017F8173C0E79E
:107E300034490978002906D02C4A9169814201DD34
:107E4000081A906186E7704710B500212F4A08464E
:107E500003F0AAFC10BD10B5244C1E2020716079DF
:107E6000002806D100222A49A06A02F00FF9012059
:107E7000607110BD08B50020264B06220521009038
:107E800002F06BF8002803D023A22749FCF732FA4E
:107E90001648264A0121203002F0B1F8002804D00B
:107EA00021491DA2491DFCF725FA1048204A01214D
:107EB000243002F0A4F8002804D01B4916A20A318D
:107EC000FCF718FA09481B4A0121283002F097F8FC
:107ED000002804D0144910A20F31FCF70BFA08BD9A
:107EE000000500500000C8424178010074200020C5
:107EF000078201004620002052200020532000204D
:107F0000542000205E20002043220020557D0100E7
:107F100066060000602500202E2E5C74696D6542A7
:107F20006C652E6300000000F5030000177501006A
:107F3000597A0100437D010010B5FFF78CFF10BD99
:107F400010B5FFF788FF93480078002807D19249C1
:107F500001200870914906200870FCF7EDF910BD6A
:107F60007047F8B58B48007800282DD1FFF7B4F999
:107F7000FFF7EDF98A4C8B4D2278287813468A4E0C
:107F800003433078894F034338788A49034388484C
:107F9000007883430120002B12D04B7A5B1CDBB2AC
:107FA0004B728549022B10D9002222702A70327040
:107FB0003A70824B4204DA60814A10701E2006E05B
:107FC00048720870FCF7B8F9F8BD002AFCD00880A8
:107FD000F8BDF8B5774C0025207A01260227002845
:107FE0000ED025720A2000F0CFF8012801D165716A
:107FF000A770092000F0C8F8002801D1A671E77029
:108000006089002801D0401E60812079002802D0BC
:10801000012845D133E0102000F0B6F8644901286A
:1080200009D0A089401C80B2A081097800291AD00B
:10803000A581267121E06078002804D0401E00064A
:10804000000E60702CD1267167700878002827D147
:10805000A089962824D86089002801D065811FE076
:10806000FFF77FFF1CE0962804D9E079002804D1AF
:10807000E67102E0962800D2E571677010E01020EA
:1080800000F082F8002801D0A581F6E7607800288A
:1080900004D0401E0006000E607001D1677025718B
:1080A0006079002802D001281CD115E00A2000F0D8
:1080B0006BF8012815D1A078002804D0401E0006D6
:1080C000000EA0700ED1334966710E703E493D48D6
:1080D0000E701421017005E00A2000F055F8002808
:1080E0000BD0A770A07900281FD0012823D1092028
:1080F00000F04AF800282BD01CE0A078002804D01B
:10810000401E0006000EA070ECD16571FFF7E4F888
:10811000FFF71DF92B480178142900D005701D4880
:1081200005702A480570A671DCE7092000F02CF8DC
:10813000012801D0E770F8BDE078002804D0401E87
:108140000006000EE070F6D12048A6710670F8BD5A
:10815000E078002804D0401E0006000EE070F6D142
:108160001A48A5710570F8BD124810B50023184AC9
:108170000221103003F02EF8002804D0FF2115A2B0
:108180004831FCF7B7F810BD0C490969C140C80770
:10819000C00F7047122000200D2000200C2200206C
:1081A0000420002042200020432000200520002041
:1081B00010200020A82000201820002000050050DA
:1081C000492000200B2000204B20002041200020CF
:1081D000660600002E2E5C627574746F6E426C65CC
:1081E0002E6300000020864902E0401C642806DA65
:1081F0000A69120CD207D20FF7D0642801DB0120E4
:10820000704700207047F0B587B00024FFF7E1FE0B
:108210007C497D4F0878002801D010200DE07B4874
:108220000078002804D03878142807D03C7005E086
:1082300077480078002801D011203870754A3878C6
:108240001378754E984202D0107001223270734A32
:10825000734D0E2875D008DC00280FD0012832D0CD
:1082600002283DD003286DD14AE00F286BD010289A
:1082700079D0112869D01428F5D19CE0FFF72CF8AB
:1082800004A90131481C04AA0092C31E0190021FD8
:10829000029103A8411CFCF763FA32780499039811
:1082A00007F0B8F959492878097888434AD02C70E2
:1082B0003078002846D15B480078002801D00F2094
:1082C0006EE001206CE058483278006901210068B6
:1082D00007F050FA2878002834D02C7002205FE094
:1082E0005249106809F074FC08F0F2F83278022163
:1082F00007F040FA287800287FD02C7003204FE048
:1083000005A906A809F0C6FA494805990078002889
:1083100045480069006819D0484308F01DF94549EF
:1083200008F026F807F0FAFF434A444B07F0C2FE74
:1083300007F082FE08F0CCF83278032107F01AFA31
:1083400058E04FE02DE044E00DE02BE0484308F01A
:1083500003F9384908F00CF839498842EADB394812
:10836000E8E72C7033E029480078002845D02E48F3
:108370000C700169374D0C60334914600C60006962
:10838000324900680860324804602878002803D128
:10839000FCF7C5FB012028702F490120087014202C
:1083A00038702AE03078002802D0002004F048FF1E
:1083B00007F04FFC21E03078002802D007F079FC6C
:1083C00074707078401CC0B270703C2815D33C703B
:1083D00013E03078002802D0002004F031FF07F0CD
:1083E0002DFC07E03078002802D0002004F028FFA0
:1083F00007F04FFC28780028B3D1347007B0F0BDE7
:1084000000050050102000200B200020122000202A
:108410004A2000200C200020D020002044230020EF
:10842000A820002064200020D0240020000020414B
:108430005C20002000007A44AC1C5A643BDFE33F20
:1084400000401C46003C1C46802200208420002066
:10845000882000200F2000204820002010B50C4864
:10846000062141700178002905D1012101703C21CC
:108470000F2001F0E4FB10BD10B50548017800297C
:1084800005D0002101709621282001F0D8FB10BDF5
:10849000D220002010B5FD4C6168A068884210D041
:1084A0002C21FB4A484381184B68012B0AD0105AF3
:1084B0001C3197DF002804D1207A401C4007400F70
:1084C000A06010BD105A0989002295DFF2E738B587
:1084D0000546F04A684601210280022484702889FA
:1084E0006A4690DF010003D0284600F0BCFA38BD90
:1084F000E648C46038BD38B50446E748018CFF291A
:1085000003D0818DFF2908D014E0C08B6946401C40
:1085100008804880208993DF06E0408D6946401C32
:1085200008804880208993DF010003D0204600F0B6
:108530009AFA38BDD5490420C86038BDFEB50E464C
:10854000C98807460846FF380B3807D0093005D0E0
:10855000002913D0384600F086FAFEBDCE48C18B04
:10856000002909D0418A002906D0408D002803D077
:108570003846FFF7C0FFFEBD0521EBE7C6480024E3
:1085800001460A3102910C312230254601910090BA
:1085900016E00A2068438419E189C0480E3409189E
:1085A00009D0BF48081819D0BC49C91CC84206D117
:1085B0002146029801E02146019800F07AFA6D1CEC
:1085C000B089A842E5D8002C0BD020896946401C10
:1085D0000880B14800894880384605E02146009867
:1085E000EBE7AD493846891D00F04AFAFEBDF7B504
:1085F000A74D00241646A54F303D5EE038690300C4
:1086000008F0F6FE09060B10151A1E2328375A002B
:108610000198005D287201204DE00198005D6872AC
:10862000022048E00198005DA872032043E0019811
:10863000005DE87204203EE00198005D287339E097
:108640000198005D6873062035E00198005DE881BF
:10865000072030E00199E889095D09020843E881B3
:10866000082038618A482038786100207880388076
:1086700022E078881F2805D201997A69095D115492
:10868000401C78803888401C80B23880E98981425B
:1086900012D17888202801D11F20788080B2E8810B
:1086A0007A690021115403202860009801687848F5
:1086B0003038884705203861641CB4429EDBFEBD1B
:1086C000FFB51646714A81B0D0681D46052802D014
:1086D000082005B0F0BD50682C234343401C4007E0
:1086E000400F50606A4C6C481C19408AE083204659
:1086F00008306062002727840120207720462772F7
:108700000422093007F086FB05200FE029782218A3
:1087100011726988401C002905D022181172401C72
:1087200021180F72401C761EF6B22D1D002EEDD1C1
:10873000608401980089208002206060FFF7AAFE13
:108740000020C6E770B50446088A0C3190B00228B4
:1087500044D3514A0B88D58B1046408DAB4204D18F
:10876000167E6B469E71D28A07E0834236D14A4B11
:1087700020331E796B469E71528C9A800A88AA42D9
:108780002ED188791872C8795872087A9872487A06
:10879000D872488998818889D88102200090216800
:1087A000184688476A46107A002817D1012108A880
:1087B000017420215186032202756846C1860CABE4
:1087C000022203A92046FFF77BFF002803D035A231
:1087D0003849FBF78FFD2D490020086110B070BDAE
:1087E0008242FBD18A882046891DFFF700FFF5E70A
:1087F00070B5044625480121274DC1602978FE291E
:1088000005D10A216156491C09D0A17A29700906AF
:10881000090E04D180692E221F4907F0FBFA2E2190
:108820001D4807F054FBFF202870E0720020C04371
:108830002081A07270BD0A68002A01D0012A01D1EE
:10884000097981727047F8B5104D0A88EC68FF27E6
:10885000114E230008F0CCFD073E054761666B33DF
:108860004200102A36D1898801810A2141560446E6
:10887000481C21D02E204143A8692E220918064801
:1088800007F0C8FA0620E86017E00000D4200020B6
:108890006828002031F40000F8290020F3EDFFFFE4
:1088A000244BFFFF2E2E5C626C655F616E63735F0D
:1088B000632E6300C50200003770204608E0172AC7
:1088C00001D0142A0AD171889D4A914203D0377091
:1088D000FFF7FDFDF8BD00F0E1F8F8BD112AFCD16D
:1088E000FFF786FFF8BD302AF8D10A46C98800296B
:1088F00002D000F0B8F8F8BD117C3171D1897180D7
:108900009189002907D0518AF180918A3181B11D66
:1089100000F0B6F8F8BDD188EBE7322ADED1FFF7D8
:108920000DFEF8BD332AD9D100F0D0F8F8BD382AB1
:1089300004D0372AD2D1FFF7ADFDF8BDFFF702FF13
:10894000F8BD100003D07F49C969496808477047DE
:108950007CB50A68002A29D002604A684260002279
:10896000D24382720024C4728A68C260C9680161FD
:10897000611E0181FF252E21734807F0A8FA734874
:1089800069460463446370486E4C05700120E060E2
:10899000C880302088806E4821460090203168468B
:1089A00000F02EFC68493039A1617CBD07207CBDF8
:1089B00070B5644D2C236C68644E6343641C64077B
:1089C0003036640F9B196C60D98302211C46598490
:1089D00008345C6200241C8401241C771A72120A79
:1089E0005A7218805960FFF755FD002070BD564936
:1089F0000089098C0122DBE753490089098C002298
:108A0000D6E751490089898D0122D1E74E49008975
:108A1000898D0022CCE74B494B4810B5002330220A
:108A20002031303800F008FD002806D04549FF22EB
:108A3000896905280A7000D1002010BD42494148CB
:108A400010B5002330223039203000F06BFC10BD0F
:108A500010B53C48C068002804D03A483021203086
:108A600000F02FFD10BD00B5364B8DB00722DA6047
:108A70000122009202910168684688470DB000BD4E
:108A800030B40446008992DF010002D0204630BC99
:108A9000E9E72C490320C86030BC704700B5294A7B
:108AA0008DB00521D160002100910168684688479A
:108AB000E4E78A7882700A8802800A790271CA889B
:108AC000C28009890181FF214181704770B5CA8840
:108AD0001346FF3B0B3B07D0093305D0002A05D0D6
:108AE0001146FFF7C0FF70BD0521FAE78A89164BD2
:108AF000002A19D0CA895E8A551E164CAE4204D18E
:108B0000098AA14210D19A820EE0DE8BAE4204D1D6
:108B1000098AA14208D11A8406E05E8DAE4203D1D3
:108B2000098AA14200D19A85198CFF2905D0998D17
:108B3000FF2902D0FFF7B2FF70BDFFF7DCFC70BD6C
:108B400031F40000D4200020F8290020382800202B
:108B50004389010002290000F0B500240546601C8D
:108B600001078FB0090F08A8103108940170601C2C
:108B70000107090F08A8103141708178F9273940A1
:108B8000891C81701C2101A807F0A3F968460179AE
:108B90001020014368460171029408A804940594CA
:108BA00001260794069086710821C943684681848E
:108BB0003146103100940170314610314170817896
:108BC000F7203940891C0140EF20014031436846BD
:108BD000817014210AA807F07CF909A80A90684658
:108BE0000B9006861421448681862B4668880C33B8
:108BF0000AAA01A9A2DF0FB0F0BD10B50C460028EB
:108C00001BD0002C19D02188012927D0102915D07C
:108C1000112915D0502910D1E288038AA11D9A424A
:108C200002D10B8B022B0FD083889A4205D1836926
:108C3000002B02D00A8B1A31984710BDA18801E0A1
:108C40000021C943818210BDCA7E8B7E1102194367
:108C5000C907C90F00D00121817510BD207AFFF727
:108C6000E7F8207AFFF7E4F810BD38B50D460400A8
:108C70001FD0002D1DD00020C043A0822868A06115
:108C80000020A0750121684681700F21C943018031
:108C9000A21C69460120A0DF002809D129462046F0
:108CA000FFF75AFF002803D12946204600F048F874
:108CB00038BD0E2038BD77B585B00E460446002578
:108CC000FFF7CCFB002C0DD0A08A3E4988420BD088
:108CD000A07D002808D06846808B142806D907207C
:108CE00008B070BD0E20FBE70820F9E700200090D7
:108CF000019002900390A1896846018007A8029024
:108D00000121039668468170A08A6946A6DF2E4934
:108D1000097800290BD011E0322000F0DDFEA08A96
:108D20006946A6DF401CC5B20A2D04D306E02749D8
:108D3000884203D1264E30780028EDD12846CFE76F
:108D400070B58EB005461C21684607F0C2F869462A
:108D500008780E21084369460870002401940394A2
:108D600004940594012608A906948E700920C04336
:108D700069460884601C0007000F103007940877CC
:108D8000304610304877887FF9210840F721801C51
:108D90000840EF210840304369468877142109A82C
:108DA00007F097F808A8099007A80A9069468E85E9
:108DB0001420CC85088668882B1D09AAA2DF0EB076
:108DC00070BD0000FFFF00005D20002003300000A8
:108DD0000E20002014225043F84A0021801801710F
:108DE000C18008220161C260416101817047FFB505
:108DF00083B00F46F24D069A05990646EB6811437B
:108E000003200191002B01D0E96803E000290ED076
:108E10000121E960059A01249200240700920B00C9
:108E200008F0E6FA07320721345474833200022135
:108E3000EFE7E4484169491C05D02169406989B2DE
:108E400007F049F800E060692169401E89B2484393
:108E5000216909048A0C216989B2794351DF00280C
:108E600012D102210FE0384650DF00280CD10599BD
:108E7000002901D0032106E0069900291FD131788D
:108E8000042968D020E0E96007B0F0BDCD48416911
:108E9000491C05D02169406989B207F01CF800E03F
:108EA00060692169401E89B241432069059A80B2F8
:108EB000784351DF0028E7D10699002901D0042129
:108EC000E1E7317804292ED00521DCE7BD4841696E
:108ED000491C05D02169406989B206F0FCFF00E019
:108EE00060692169401E89B2484371884218009820
:108EF0001018226992B27A43521800995318014609
:108F00001846069A51DF0028DBD0BDE7206971883A
:108F100080B2784380188A08316951DF0028B3D1C4
:108F20000199002917D00621ADE7A6484169491CDF
:108F300005D02169406989B206F0CDFF00E0606983
:108F40002169401E89B24843216989B206F0C3FFF6
:108F500050DF002898D1072195E7F8B597491423E9
:108F60000A780F205A4354189549227926698F8828
:108F7000241D022A1BD001252D07042A2AD0052AE8
:108F80005AD1286981B2304606F0A5FF0146A38870
:108F900028699A1980B24843101A82086088181804
:108FA000861928694B1C80B25843801B33E0B802F5
:108FB00062882169121A0918A38830181818012329
:108FC0009B029A4202D2920851DF30E0FF22013226
:108FD00051DF2CE0A3687C481901081801894289F7
:108FE0004068B04203D160885143814218D0092BB8
:108FF00016D0286981B2304606F06DFF0146286917
:1090000080B24843301A820828694B1C80B258430A
:1090100063889B19C01A83082046FFF7E8FE06E024
:10902000286981B2304606F056FFC01950DF00288B
:1090300002D1624901228A70F8BDF8B55F4C069EE4
:1090400065781E2D1DD027787D19EDB21E2D01D318
:109050001E3DEDB214277D432D1928716A6103C9A5
:109060002961E860EB802E81A1780020002904D1DD
:10907000FFF773FF112800D100206178491C61704F
:10908000F8BD0420F8BD38B502464C4814230178D9
:1090900059430818C3680179092B08D04A4C1B01B1
:1090A000E458C388009343690C30A04738BD444B53
:1090B00010331C68F5E7F8B5404B9978012914D1B5
:1090C00000253F499D70CA68082A05D002280FD0A4
:1090D00003280AD10D2006E0022807D00D7000F009
:1090E000B3FA002801D0FFF7CEFFF8BDCD60F6E758
:1090F0003248142403783249634318188B885B1C68
:109100009CB28C800379001D022B05D14688A102F8
:10911000B14201D3012700E00027052B01D1072A26
:1091200003D00021042B02D003E00121FAE7072A33
:1091300003D00026042B02D007E00126FAE740887E
:10914000A302834201D3002A1AD0002031430143F5
:109150003943C4D01A4E2846F560FFF794FF174CE8
:109160002078FFF737FEB5806078401E6070207869
:10917000401CC0B220701E28B1D31E382070AEE74C
:109180000120E3E770B500250D4C0C48A580E56093
:109190000570457085702E463046FFF71BFE761C25
:1091A0001E2EF9D30748658041690604491C0DD07D
:1091B0003169406989B206F08EFE08E0282A002055
:1091C000FC20002000100010842C00207069316900
:1091D000093889B24843A060F8492846A580002292
:1091E0001301C8505B1818819881521C5881082AB5
:1091F000F6D3F3490860888001212170E06070BDDA
:10920000F8B50446EE480F461038007800281ED006
:10921000002C1ED0002F1CD02068002819D001255A
:109220002D07A688286980B2864223D8102E21D324
:10923000E088009000281DD0E2484169491C0AD00E
:109240002969406989B206F046FE014604E008201B
:10925000F8BD0E20F8BD69692869D94A80B2491E57
:109260004143009B103A906873431B18994201D305
:10927000B10701D00720F8BD5188082919D0CF4B7C
:109280000E013960F2187860506027689F51A388FA
:109290001381E3885381A388E48800266343761C06
:1092A0002C69B6B2A4B29C4205D22C69A4B21B1B95
:1092B00002E00420F8BD00232C69A4B220182C6918
:1092C000A4B29C42EBD9BE4B103B9860491C9681DE
:1092D00059800020F8BD70B5B94B103B1B78002BAE
:1092E00018D0002818D0002A16D00368082B0FD2F7
:1092F000B24C1E01A559002D0AD0456830190489C9
:10930000614369184589406865432818884205D833
:10931000072070BD082070BD0E2070BD13600020B6
:10932000516070BDF8B50446A5481E461038007857
:1093300015460F4600281DD0002F1DD0002C1BD035
:109340002068082814D201019C484258002A0FD0F6
:1093500009184A890889496842435118626891424C
:1093600006D9002D04D0A84202D3A919814205D9FB
:109370000720F8BD0820F8BD0E20F8BD384600F0E3
:109380005DF9002811D0304600F058F900280CD0C3
:10939000606800F053F9002807D02B463A46214672
:1093A00002200096FFF749FEF8BD1020F8BDF8B581
:1093B000044683481E461038007815460F4600289C
:1093C0001DD0002F1DD0002C1BD02068082814D2DF
:1093D00001017A484258002A0FD009184A890889A1
:1093E0004968424351186268914206D9002D04D061
:1093F000A84202D3A919814205D90720F8BD082047
:10940000F8BD0E20F8BD384600F018F9002811D03C
:10941000304600F013F900280CD0606800F00EF917
:10942000002807D02B463A46214605200096FFF734
:1094300004FEF8BD1020F8BDF8B5074660481E468A
:109440001038007815460C4600281DD0002C1DD081
:10945000002F1BD02068082814D201015748425819
:10946000002A0FD009184A890889496842435118CF
:109470006268914206D9002D04D0A84202D3A919EE
:10948000814205D90720F8BD0820F8BD0E20F8BD9F
:10949000384600F0D3F8002811D0304600F0CEF85E
:1094A00000280CD0606800F0C9F8002807D0606878
:1094B0002A468119384606F0ADFC0020F8BD102080
:1094C000F8BDF8B504463E480E461038007800282E
:1094D00023D0002C23D0206808281CD2374D00014F
:1094E0002958002917D04019418902894068514301
:1094F0000918606881420ED900F0A0F8002810D049
:1095000021686068090149194A680989801A06F0CA
:10951000E2FC002907D00720F8BD0820F8BD0E2086
:10952000F8BD1020F8BD00200246009033462146C9
:109530000420FFF782FDF8BD214910390978002980
:1095400006D0002806D020494978016000207047E5
:10955000082070470E207047194A103A1278002AE6
:109560000CD000280CD000290AD00268002A07D0AD
:10957000134A1368002B05D0042070470820704759
:109580000E20704709230B600068106000207047B0
:10959000F8B504460A481E461038007817460D46AE
:1095A000002807D0002D07D0002C05D020680928FE
:1095B00022D10BE00820F8BD0E20F8BD842C00203D
:1095C0000C21002000100010282A002026480068E6
:1095D000002811D0084600F031F800280ED030469F
:1095E00000F02CF8002809D03B462A4621460220EC
:1095F0000096FFF722FDE0E70720DEE71020DCE71A
:10960000194A08B5103A1278002A05D0002805D06A
:109610000268092A10D103E0082008BD0E2008BD09
:10962000114A1268002A07D00B4600220146042086
:109630000092FFF702FD08BD072008BD800701D09A
:10964000002070470120704710B50848002440787A
:10965000002807D0FFF781FC040003D0112C01D0B3
:10966000FFF711FD204610BD0C210020282A002004
:10967000FFB583B0074600200C9C86462678054639
:109680003AE07868A90041180A88684682804988CB
:10969000C1800022694601A864DF002810D1684615
:1096A00001780598814226D17046002801D0002219
:1096B00000E002222078891841181F2902D90C20C5
:1096C00007B0F0BD7146002908D1401CC0B2411C52
:1096D000069B049A21701A54012086462178069828
:1096E0000A18694601A864DF0028E9D16946207894
:1096F0000978401820706D1C3888A842C1DC70467B
:10970000002804D020780699801B401E8855002030
:10971000D6E7F8B51546069C1E4607460222009479
:10972000FFF7A6FF002806D1334610222946384607
:109730000094FFF79DFFF8BDF7B582B000260546FF
:10974000167000681446002805D02846039900F0DA
:10975000DEF806002DD1687900281BD02078039F01
:10976000001D1F2824D8684679DF002821D12178E0
:109770000322481C20707A5421781922481C20703A
:109780007A542078C1196846008800F0BBF8217827
:10979000401820702989002922D001208446EA68D7
:1097A0000398002A07D023785A18921C1F2A04DD38
:1097B0000C2005B0F0BD0720FBE75A1C2270491CA5
:1097C000C15422786746511C2170875423782A8916
:1097D0001818E96806F01EFB2078297A40182070D6
:1097E0002869002815D00021415622788C46D01CCB
:1097F00003991F28DCD8501C022320708B54227838
:109800000A23501C20708B5420786246431C23701E
:109810000A54A88A002809D028460094062202216A
:109820001430039BFFF775FF0600C2D1A88B0028F8
:1098300009D028460094072203211C30039BFFF720
:1098400068FF0600B5D1A88C002809D028460094EE
:10985000152214212430039BFFF75BFF0600A8D1DB
:10986000E86A002805D02246039900F085F8060032
:109870009FD1286B002805D02246039900F0BBF841
:10988000060096D13820405D002806D022462846A2
:10989000039900F0E2F806008BD1304689E770B5F5
:1098A0000D4692B000216A461170072411710028FC
:1098B00012D00189002905D0C168002902D0097899
:1098C000490702D4204612B070BD02A9FFF734FF49
:1098D0000028F8D102AE00E00026002D0BD0288928
:1098E0000028EFD101AA0AA92846FFF725FF002882
:1098F000E9D10AAA00E000226846037901783046DF
:1099000072DFE0E70870000A487002207047F8B57F
:1099100014780746A01C15460E461F2803D8387930
:10992000801C1F2801D90C20F8BD1D20001B80B20F
:109930006946864608803019801C7DDF0028F3D1F7
:109940003868022805D168460088704501D8092189
:1099500007E038790821002801D0704501D9684610
:109960000088421C3255641CE2B2B1542978801C34
:10997000081828700020F8BDF8B50D461178064685
:10998000881D14461F2801D90C20F8BD33880720F4
:10999000062BFAD31927FF01BB4202D94D4A934245
:1099A000F3D17288062AF0D3BA4202D9494FBA429B
:1099B000EBD1484FBB4203D0BA4201D09342E4D826
:1099C000481C052220706A5420781222411C217004
:1099D0002A54207841193088FFF794FF21784018E5
:1099E000C0B2207041197088FFF78CFF21784018B1
:1099F00020700020F8BD70B5054600790E46801C29
:109A00001446C0B21178821C8A181F2A01D90C2072
:109A100070BD0A46491C2170401CB0542078FF22BA
:109A2000411C21703254207881192888FFF76AFF81
:109A300021784018C0B22070AA88002A09D0A968ED
:109A4000002908D0801906F0E5F920782979401816
:109A50002070002070BD072070BDF7B582B002985D
:109A60001446406B0F46002832D002980025203063
:109A7000009028E00298416B0C2068430E18217872
:109A800030794A1C2270C01C785420781622411C60
:109A900021703A542078C1193088FFF733FF2178BC
:109AA0004018C0B22070B288002A09D0B1680029DD
:109AB0000ED0C01906F0AEF9207831794018207028
:109AC0006D1C0098EDB2007EA842D3D8002070E64D
:109AD00007206EE6FFFF000031B5054C04E0401E94
